{
  "contractName": "Authorizable",
  "abi": [
    {
      "anonymous": false,
      "inputs": [
        {
          "indexed": true,
          "internalType": "address",
          "name": "previousOwner",
          "type": "address"
        },
        {
          "indexed": true,
          "internalType": "address",
          "name": "newOwner",
          "type": "address"
        }
      ],
      "name": "OwnershipTransferred",
      "type": "event"
    },
    {
      "inputs": [
        {
          "internalType": "address",
          "name": "",
          "type": "address"
        }
      ],
      "name": "authorized",
      "outputs": [
        {
          "internalType": "bool",
          "name": "",
          "type": "bool"
        }
      ],
      "stateMutability": "view",
      "type": "function"
    },
    {
      "inputs": [],
      "name": "owner",
      "outputs": [
        {
          "internalType": "address",
          "name": "",
          "type": "address"
        }
      ],
      "stateMutability": "view",
      "type": "function"
    },
    {
      "inputs": [],
      "name": "previousOwner",
      "outputs": [
        {
          "internalType": "address",
          "name": "",
          "type": "address"
        }
      ],
      "stateMutability": "view",
      "type": "function"
    },
    {
      "inputs": [
        {
          "internalType": "address",
          "name": "newOwner",
          "type": "address"
        }
      ],
      "name": "reclaimOwnership",
      "outputs": [],
      "stateMutability": "nonpayable",
      "type": "function"
    },
    {
      "inputs": [],
      "name": "renounceOwnership",
      "outputs": [],
      "stateMutability": "nonpayable",
      "type": "function"
    },
    {
      "inputs": [
        {
          "internalType": "address",
          "name": "newOwner",
          "type": "address"
        }
      ],
      "name": "transferOwnership",
      "outputs": [],
      "stateMutability": "nonpayable",
      "type": "function"
    },
    {
      "inputs": [
        {
          "internalType": "address",
          "name": "_toAdd",
          "type": "address"
        }
      ],
      "name": "addAuthorized",
      "outputs": [],
      "stateMutability": "nonpayable",
      "type": "function"
    },
    {
      "inputs": [
        {
          "internalType": "address",
          "name": "_toRemove",
          "type": "address"
        }
      ],
      "name": "removeAuthorized",
      "outputs": [],
      "stateMutability": "nonpayable",
      "type": "function"
    }
  ],
  "bytecode": "0x608060405234801561001057600080fd5b50600080546001600160a01b031916339081178255604051909182917f8be0079c531659141344cd1fd0a4f28419497f9722a3daafe3b4186f6b6457e0908290a3506104dd806100616000396000f3fe608060405234801561001057600080fd5b50600436106100885760003560e01c8063a90fa6031161005b578063a90fa603146100e5578063b9181611146100f8578063cf1c316a1461012b578063f2fde38b1461013e57600080fd5b8063485d7d941461008d578063674f220f146100a2578063715018a6146100cc5780638da5cb5b146100d4575b600080fd5b6100a061009b366004610442565b610151565b005b6001546001600160a01b03165b6040516001600160a01b0390911681526020015b60405180910390f35b6100a06101bb565b6000546001600160a01b03166100af565b6100a06100f3366004610442565b61022f565b61011b610106366004610442565b60026020526000908152604090205460ff1681565b60405190151581526020016100c3565b6100a0610139366004610442565b610365565b6100a061014c366004610442565b6103b3565b6000546001600160a01b031633146101845760405162461bcd60e51b815260040161017b90610472565b60405180910390fd5b6001600160a01b03811633141561019a57600080fd5b6001600160a01b03166000908152600260205260409020805460ff19169055565b6000546001600160a01b031633146101e55760405162461bcd60e51b815260040161017b90610472565b600080546040516001600160a01b03909116907f8be0079c531659141344cd1fd0a4f28419497f9722a3daafe3b4186f6b6457e0908390a3600080546001600160a01b0319169055565b6001546001600160a01b0316331461029b5760405162461bcd60e51b815260206004820152602960248201527f4f776e61626c653a2063616c6c6572206973206e6f742074686520707265766960448201526837bab99037bbb732b960b91b606482015260840161017b565b6001546001600160a01b0382811691161461030a5760405162461bcd60e51b815260206004820152602960248201527f4f776e61626c653a206e6577206f776e6572206d75737420626520707265766960448201526837bab99037bbb732b960b91b606482015260840161017b565b600080546040516001600160a01b03808516939216917f8be0079c531659141344cd1fd0a4f28419497f9722a3daafe3b4186f6b6457e091a3600080546001600160a01b0319166001600160a01b0392909216919091179055565b6000546001600160a01b0316331461038f5760405162461bcd60e51b815260040161017b90610472565b6001600160a01b03166000908152600260205260409020805460ff19166001179055565b6000546001600160a01b031633146103dd5760405162461bcd60e51b815260040161017b90610472565b6001600160a01b03811661030a5760405162461bcd60e51b815260206004820152602660248201527f4f776e61626c653a206e6577206f776e657220697320746865207a65726f206160448201526564647265737360d01b606482015260840161017b565b60006020828403121561045457600080fd5b81356001600160a01b038116811461046b57600080fd5b9392505050565b6020808252818101527f4f776e61626c653a2063616c6c6572206973206e6f7420746865206f776e657260408201526060019056fea2646970667358221220b65eee3a676f009209fc5e1cbf863c5408e1569a68422abe7899753ae5eb9f3f64736f6c63430008070033",
  "immutableReferences": {},
  "source": "// SPDX-License-Identifier: MIT\r\n\r\npragma solidity ^0.8.0;\r\n\r\nimport \"./Context.sol\";\r\n\r\n/**\r\n * @dev Contract module which provides a basic access control mechanism, where\r\n * there is an account (an owner) that can be granted exclusive access to\r\n * specific functions.\r\n *\r\n * By default, the owner account will be the one that deploys the contract. This\r\n * can later be changed with {transferOwnership}.\r\n *\r\n * This module is used through inheritance. It will make available the modifier\r\n * `onlyOwner`, which can be applied to your functions to restrict their use to\r\n * the owner.\r\n */\r\ncontract Ownable is Context {\r\n    address private _owner;\r\n    address private _previousOwner;\r\n\r\n    event OwnershipTransferred(address indexed previousOwner, address indexed newOwner);\r\n\r\n    /**\r\n     * @dev Initializes the contract setting the deployer as the initial owner.\r\n     */\r\n    // constructor () internal {\r\n    constructor () {\r\n        address msgSender = _msgSender();\r\n        _owner = msgSender;\r\n        emit OwnershipTransferred(address(0), msgSender);\r\n    }\r\n\r\n    /**\r\n     * @dev Returns the address of the current owner.\r\n     */\r\n    function owner() public view returns (address) {\r\n        return _owner;\r\n    }\r\n    \r\n    /**\r\n     * @dev Returns the address of the previous owner.\r\n     */\r\n    function previousOwner() public view returns (address) {\r\n        return _previousOwner;\r\n    }\r\n\r\n    /**\r\n     * @dev Throws if called by any account other than the owner.\r\n     */\r\n    modifier onlyOwner() {\r\n        require(_owner == _msgSender(), \"Ownable: caller is not the owner\");\r\n        _;\r\n    }\r\n    \r\n    modifier onlyPreviousOwner() {\r\n        require(_previousOwner == _msgSender(), \"Ownable: caller is not the previous owner\");\r\n        _;\r\n    }\r\n\r\n    /**\r\n     * @dev Leaves the contract without owner. It will not be possible to call\r\n     * `onlyOwner` functions anymore. Can only be called by the current owner.\r\n     *\r\n     * NOTE: Renouncing ownership will leave the contract without an owner,\r\n     * thereby removing any functionality that is only available to the owner.\r\n     */\r\n    function renounceOwnership() public virtual onlyOwner {\r\n        emit OwnershipTransferred(_owner, address(0));\r\n        _owner = address(0);\r\n    }\r\n\r\n    /**\r\n     * @dev Transfers ownership of the contract to a new account (`newOwner`).\r\n     * Can only be called by the current owner.\r\n     */\r\n    function transferOwnership(address newOwner) public virtual onlyOwner {\r\n        require(newOwner != address(0), \"Ownable: new owner is the zero address\");\r\n        emit OwnershipTransferred(_owner, newOwner);\r\n        _owner = newOwner;\r\n    }\r\n    \r\n    function reclaimOwnership(address newOwner) public virtual onlyPreviousOwner {\r\n        require(newOwner == _previousOwner, \"Ownable: new owner must be previous owner\");\r\n        emit OwnershipTransferred(_owner, newOwner);\r\n        _owner = newOwner;\r\n    }\r\n    \r\n}\r\ncontract Authorizable is Ownable {\r\n\r\n    mapping(address => bool) public authorized;\r\n\r\n    modifier onlyAuthorized() {\r\n        require(authorized[msg.sender] || owner() == msg.sender);\r\n        _;\r\n    }\r\n\r\n    function addAuthorized(address _toAdd) onlyOwner public {\r\n        authorized[_toAdd] = true;\r\n    }\r\n\r\n    function removeAuthorized(address _toRemove) onlyOwner public {\r\n        require(_toRemove != msg.sender);\r\n        authorized[_toRemove] = false;\r\n    }\r\n\r\n}",
  "sourcePath": "C:\\Users\\cheek\\Desktop\\Developer doc\\Visual Studio Code\\Baklava\\bao2Finance\\src\\contracts\\Ownable.sol",
  "compiler": {
    "name": "solc",
    "version": "0.8.7+commit.e28d00a7.Emscripten.clang"
  },
  "schemaVersion": "3.2.3",
  "updatedAt": "2021-12-03T07:27:53.400Z",
  "devdoc": {
    "kind": "dev",
    "methods": {
      "owner()": {
        "details": "Returns the address of the current owner."
      },
      "previousOwner()": {
        "details": "Returns the address of the previous owner."
      },
      "renounceOwnership()": {
        "details": "Leaves the contract without owner. It will not be possible to call `onlyOwner` functions anymore. Can only be called by the current owner. NOTE: Renouncing ownership will leave the contract without an owner, thereby removing any functionality that is only available to the owner."
      },
      "transferOwnership(address)": {
        "details": "Transfers ownership of the contract to a new account (`newOwner`). Can only be called by the current owner."
      }
    },
    "version": 1
  },
  "userdoc": {
    "kind": "user",
    "methods": {},
    "version": 1
  }
}