{
  "contractName": "BavaToken",
  "abi": [
    {
      "inputs": [
        {
          "internalType": "uint256",
          "name": "_lockFromBlock",
          "type": "uint256"
        },
        {
          "internalType": "uint256",
          "name": "_lockToBlock",
          "type": "uint256"
        }
      ],
      "stateMutability": "nonpayable",
      "type": "constructor"
    },
    {
      "anonymous": false,
      "inputs": [
        {
          "indexed": true,
          "internalType": "address",
          "name": "owner",
          "type": "address"
        },
        {
          "indexed": true,
          "internalType": "address",
          "name": "spender",
          "type": "address"
        },
        {
          "indexed": false,
          "internalType": "uint256",
          "name": "value",
          "type": "uint256"
        }
      ],
      "name": "Approval",
      "type": "event"
    },
    {
      "anonymous": false,
      "inputs": [
        {
          "indexed": true,
          "internalType": "address",
          "name": "delegator",
          "type": "address"
        },
        {
          "indexed": true,
          "internalType": "address",
          "name": "fromDelegate",
          "type": "address"
        },
        {
          "indexed": true,
          "internalType": "address",
          "name": "toDelegate",
          "type": "address"
        }
      ],
      "name": "DelegateChanged",
      "type": "event"
    },
    {
      "anonymous": false,
      "inputs": [
        {
          "indexed": true,
          "internalType": "address",
          "name": "delegate",
          "type": "address"
        },
        {
          "indexed": false,
          "internalType": "uint256",
          "name": "previousBalance",
          "type": "uint256"
        },
        {
          "indexed": false,
          "internalType": "uint256",
          "name": "newBalance",
          "type": "uint256"
        }
      ],
      "name": "DelegateVotesChanged",
      "type": "event"
    },
    {
      "anonymous": false,
      "inputs": [
        {
          "indexed": true,
          "internalType": "address",
          "name": "to",
          "type": "address"
        },
        {
          "indexed": false,
          "internalType": "uint256",
          "name": "value",
          "type": "uint256"
        }
      ],
      "name": "Lock",
      "type": "event"
    },
    {
      "anonymous": false,
      "inputs": [
        {
          "indexed": true,
          "internalType": "address",
          "name": "previousOwner",
          "type": "address"
        },
        {
          "indexed": true,
          "internalType": "address",
          "name": "newOwner",
          "type": "address"
        }
      ],
      "name": "OwnershipTransferred",
      "type": "event"
    },
    {
      "anonymous": false,
      "inputs": [
        {
          "indexed": true,
          "internalType": "address",
          "name": "from",
          "type": "address"
        },
        {
          "indexed": true,
          "internalType": "address",
          "name": "to",
          "type": "address"
        },
        {
          "indexed": false,
          "internalType": "uint256",
          "name": "value",
          "type": "uint256"
        }
      ],
      "name": "Transfer",
      "type": "event"
    },
    {
      "inputs": [],
      "name": "DELEGATION_TYPEHASH",
      "outputs": [
        {
          "internalType": "bytes32",
          "name": "",
          "type": "bytes32"
        }
      ],
      "stateMutability": "view",
      "type": "function",
      "constant": true
    },
    {
      "inputs": [],
      "name": "DOMAIN_TYPEHASH",
      "outputs": [
        {
          "internalType": "bytes32",
          "name": "",
          "type": "bytes32"
        }
      ],
      "stateMutability": "view",
      "type": "function",
      "constant": true
    },
    {
      "inputs": [
        {
          "internalType": "address",
          "name": "_toAdd",
          "type": "address"
        }
      ],
      "name": "addAuthorized",
      "outputs": [],
      "stateMutability": "nonpayable",
      "type": "function"
    },
    {
      "inputs": [
        {
          "internalType": "address",
          "name": "owner",
          "type": "address"
        },
        {
          "internalType": "address",
          "name": "spender",
          "type": "address"
        }
      ],
      "name": "allowance",
      "outputs": [
        {
          "internalType": "uint256",
          "name": "",
          "type": "uint256"
        }
      ],
      "stateMutability": "view",
      "type": "function",
      "constant": true
    },
    {
      "inputs": [
        {
          "internalType": "address",
          "name": "spender",
          "type": "address"
        },
        {
          "internalType": "uint256",
          "name": "amount",
          "type": "uint256"
        }
      ],
      "name": "approve",
      "outputs": [
        {
          "internalType": "bool",
          "name": "",
          "type": "bool"
        }
      ],
      "stateMutability": "nonpayable",
      "type": "function"
    },
    {
      "inputs": [
        {
          "internalType": "address",
          "name": "",
          "type": "address"
        }
      ],
      "name": "authorized",
      "outputs": [
        {
          "internalType": "bool",
          "name": "",
          "type": "bool"
        }
      ],
      "stateMutability": "view",
      "type": "function",
      "constant": true
    },
    {
      "inputs": [
        {
          "internalType": "address",
          "name": "account",
          "type": "address"
        }
      ],
      "name": "balanceOf",
      "outputs": [
        {
          "internalType": "uint256",
          "name": "",
          "type": "uint256"
        }
      ],
      "stateMutability": "view",
      "type": "function",
      "constant": true
    },
    {
      "inputs": [
        {
          "internalType": "address",
          "name": "",
          "type": "address"
        },
        {
          "internalType": "uint32",
          "name": "",
          "type": "uint32"
        }
      ],
      "name": "checkpoints",
      "outputs": [
        {
          "internalType": "uint32",
          "name": "fromBlock",
          "type": "uint32"
        },
        {
          "internalType": "uint256",
          "name": "votes",
          "type": "uint256"
        }
      ],
      "stateMutability": "view",
      "type": "function",
      "constant": true
    },
    {
      "inputs": [],
      "name": "decimals",
      "outputs": [
        {
          "internalType": "uint8",
          "name": "",
          "type": "uint8"
        }
      ],
      "stateMutability": "view",
      "type": "function",
      "constant": true
    },
    {
      "inputs": [
        {
          "internalType": "address",
          "name": "spender",
          "type": "address"
        },
        {
          "internalType": "uint256",
          "name": "subtractedValue",
          "type": "uint256"
        }
      ],
      "name": "decreaseAllowance",
      "outputs": [
        {
          "internalType": "bool",
          "name": "",
          "type": "bool"
        }
      ],
      "stateMutability": "nonpayable",
      "type": "function"
    },
    {
      "inputs": [
        {
          "internalType": "address",
          "name": "spender",
          "type": "address"
        },
        {
          "internalType": "uint256",
          "name": "addedValue",
          "type": "uint256"
        }
      ],
      "name": "increaseAllowance",
      "outputs": [
        {
          "internalType": "bool",
          "name": "",
          "type": "bool"
        }
      ],
      "stateMutability": "nonpayable",
      "type": "function"
    },
    {
      "inputs": [],
      "name": "lockFromBlock",
      "outputs": [
        {
          "internalType": "uint256",
          "name": "",
          "type": "uint256"
        }
      ],
      "stateMutability": "view",
      "type": "function",
      "constant": true
    },
    {
      "inputs": [],
      "name": "lockToBlock",
      "outputs": [
        {
          "internalType": "uint256",
          "name": "",
          "type": "uint256"
        }
      ],
      "stateMutability": "view",
      "type": "function",
      "constant": true
    },
    {
      "inputs": [],
      "name": "manualMintLimit",
      "outputs": [
        {
          "internalType": "uint256",
          "name": "",
          "type": "uint256"
        }
      ],
      "stateMutability": "view",
      "type": "function",
      "constant": true
    },
    {
      "inputs": [],
      "name": "manualMinted",
      "outputs": [
        {
          "internalType": "uint256",
          "name": "",
          "type": "uint256"
        }
      ],
      "stateMutability": "view",
      "type": "function",
      "constant": true
    },
    {
      "inputs": [],
      "name": "name",
      "outputs": [
        {
          "internalType": "string",
          "name": "",
          "type": "string"
        }
      ],
      "stateMutability": "view",
      "type": "function",
      "constant": true
    },
    {
      "inputs": [
        {
          "internalType": "address",
          "name": "",
          "type": "address"
        }
      ],
      "name": "nonces",
      "outputs": [
        {
          "internalType": "uint256",
          "name": "",
          "type": "uint256"
        }
      ],
      "stateMutability": "view",
      "type": "function",
      "constant": true
    },
    {
      "inputs": [
        {
          "internalType": "address",
          "name": "",
          "type": "address"
        }
      ],
      "name": "numCheckpoints",
      "outputs": [
        {
          "internalType": "uint32",
          "name": "",
          "type": "uint32"
        }
      ],
      "stateMutability": "view",
      "type": "function",
      "constant": true
    },
    {
      "inputs": [],
      "name": "owner",
      "outputs": [
        {
          "internalType": "address",
          "name": "",
          "type": "address"
        }
      ],
      "stateMutability": "view",
      "type": "function",
      "constant": true
    },
    {
      "inputs": [],
      "name": "previousOwner",
      "outputs": [
        {
          "internalType": "address",
          "name": "",
          "type": "address"
        }
      ],
      "stateMutability": "view",
      "type": "function",
      "constant": true
    },
    {
      "inputs": [
        {
          "internalType": "address",
          "name": "newOwner",
          "type": "address"
        }
      ],
      "name": "reclaimOwnership",
      "outputs": [],
      "stateMutability": "nonpayable",
      "type": "function"
    },
    {
      "inputs": [
        {
          "internalType": "address",
          "name": "_toRemove",
          "type": "address"
        }
      ],
      "name": "removeAuthorized",
      "outputs": [],
      "stateMutability": "nonpayable",
      "type": "function"
    },
    {
      "inputs": [],
      "name": "renounceOwnership",
      "outputs": [],
      "stateMutability": "nonpayable",
      "type": "function"
    },
    {
      "inputs": [],
      "name": "symbol",
      "outputs": [
        {
          "internalType": "string",
          "name": "",
          "type": "string"
        }
      ],
      "stateMutability": "view",
      "type": "function",
      "constant": true
    },
    {
      "inputs": [],
      "name": "totalSupply",
      "outputs": [
        {
          "internalType": "uint256",
          "name": "",
          "type": "uint256"
        }
      ],
      "stateMutability": "view",
      "type": "function",
      "constant": true
    },
    {
      "inputs": [
        {
          "internalType": "address",
          "name": "recipient",
          "type": "address"
        },
        {
          "internalType": "uint256",
          "name": "amount",
          "type": "uint256"
        }
      ],
      "name": "transfer",
      "outputs": [
        {
          "internalType": "bool",
          "name": "",
          "type": "bool"
        }
      ],
      "stateMutability": "nonpayable",
      "type": "function"
    },
    {
      "inputs": [
        {
          "internalType": "address",
          "name": "sender",
          "type": "address"
        },
        {
          "internalType": "address",
          "name": "recipient",
          "type": "address"
        },
        {
          "internalType": "uint256",
          "name": "amount",
          "type": "uint256"
        }
      ],
      "name": "transferFrom",
      "outputs": [
        {
          "internalType": "bool",
          "name": "",
          "type": "bool"
        }
      ],
      "stateMutability": "nonpayable",
      "type": "function"
    },
    {
      "inputs": [
        {
          "internalType": "address",
          "name": "newOwner",
          "type": "address"
        }
      ],
      "name": "transferOwnership",
      "outputs": [],
      "stateMutability": "nonpayable",
      "type": "function"
    },
    {
      "inputs": [],
      "name": "cap",
      "outputs": [
        {
          "internalType": "uint256",
          "name": "",
          "type": "uint256"
        }
      ],
      "stateMutability": "view",
      "type": "function",
      "constant": true
    },
    {
      "inputs": [
        {
          "internalType": "uint256",
          "name": "_newCap",
          "type": "uint256"
        }
      ],
      "name": "capUpdate",
      "outputs": [],
      "stateMutability": "nonpayable",
      "type": "function"
    },
    {
      "inputs": [
        {
          "internalType": "uint256",
          "name": "_newLockFrom",
          "type": "uint256"
        }
      ],
      "name": "lockFromUpdate",
      "outputs": [],
      "stateMutability": "nonpayable",
      "type": "function"
    },
    {
      "inputs": [
        {
          "internalType": "uint256",
          "name": "_newLockTo",
          "type": "uint256"
        }
      ],
      "name": "lockToUpdate",
      "outputs": [],
      "stateMutability": "nonpayable",
      "type": "function"
    },
    {
      "inputs": [],
      "name": "unlockedSupply",
      "outputs": [
        {
          "internalType": "uint256",
          "name": "",
          "type": "uint256"
        }
      ],
      "stateMutability": "view",
      "type": "function",
      "constant": true
    },
    {
      "inputs": [],
      "name": "lockedSupply",
      "outputs": [
        {
          "internalType": "uint256",
          "name": "",
          "type": "uint256"
        }
      ],
      "stateMutability": "view",
      "type": "function",
      "constant": true
    },
    {
      "inputs": [],
      "name": "circulatingSupply",
      "outputs": [
        {
          "internalType": "uint256",
          "name": "",
          "type": "uint256"
        }
      ],
      "stateMutability": "view",
      "type": "function",
      "constant": true
    },
    {
      "inputs": [],
      "name": "totalLock",
      "outputs": [
        {
          "internalType": "uint256",
          "name": "",
          "type": "uint256"
        }
      ],
      "stateMutability": "view",
      "type": "function",
      "constant": true
    },
    {
      "inputs": [
        {
          "internalType": "address",
          "name": "_to",
          "type": "address"
        },
        {
          "internalType": "uint256",
          "name": "_amount",
          "type": "uint256"
        }
      ],
      "name": "mint",
      "outputs": [],
      "stateMutability": "nonpayable",
      "type": "function"
    },
    {
      "inputs": [
        {
          "internalType": "address",
          "name": "_to",
          "type": "address"
        },
        {
          "internalType": "uint256",
          "name": "_amount",
          "type": "uint256"
        }
      ],
      "name": "manualMint",
      "outputs": [],
      "stateMutability": "nonpayable",
      "type": "function"
    },
    {
      "inputs": [
        {
          "internalType": "address",
          "name": "_holder",
          "type": "address"
        }
      ],
      "name": "totalBalanceOf",
      "outputs": [
        {
          "internalType": "uint256",
          "name": "",
          "type": "uint256"
        }
      ],
      "stateMutability": "view",
      "type": "function",
      "constant": true
    },
    {
      "inputs": [
        {
          "internalType": "address",
          "name": "_holder",
          "type": "address"
        }
      ],
      "name": "lockOf",
      "outputs": [
        {
          "internalType": "uint256",
          "name": "",
          "type": "uint256"
        }
      ],
      "stateMutability": "view",
      "type": "function",
      "constant": true
    },
    {
      "inputs": [
        {
          "internalType": "address",
          "name": "_holder",
          "type": "address"
        }
      ],
      "name": "lastUnlockBlock",
      "outputs": [
        {
          "internalType": "uint256",
          "name": "",
          "type": "uint256"
        }
      ],
      "stateMutability": "view",
      "type": "function",
      "constant": true
    },
    {
      "inputs": [
        {
          "internalType": "address",
          "name": "_holder",
          "type": "address"
        },
        {
          "internalType": "uint256",
          "name": "_amount",
          "type": "uint256"
        }
      ],
      "name": "lock",
      "outputs": [],
      "stateMutability": "nonpayable",
      "type": "function"
    },
    {
      "inputs": [
        {
          "internalType": "address",
          "name": "_holder",
          "type": "address"
        }
      ],
      "name": "canUnlockAmount",
      "outputs": [
        {
          "internalType": "uint256",
          "name": "",
          "type": "uint256"
        }
      ],
      "stateMutability": "view",
      "type": "function",
      "constant": true
    },
    {
      "inputs": [],
      "name": "unlock",
      "outputs": [],
      "stateMutability": "nonpayable",
      "type": "function"
    },
    {
      "inputs": [
        {
          "internalType": "address",
          "name": "_to",
          "type": "address"
        }
      ],
      "name": "transferAll",
      "outputs": [],
      "stateMutability": "nonpayable",
      "type": "function"
    },
    {
      "inputs": [
        {
          "internalType": "address",
          "name": "delegator",
          "type": "address"
        }
      ],
      "name": "delegates",
      "outputs": [
        {
          "internalType": "address",
          "name": "",
          "type": "address"
        }
      ],
      "stateMutability": "view",
      "type": "function",
      "constant": true
    },
    {
      "inputs": [
        {
          "internalType": "address",
          "name": "delegatee",
          "type": "address"
        }
      ],
      "name": "delegate",
      "outputs": [],
      "stateMutability": "nonpayable",
      "type": "function"
    },
    {
      "inputs": [
        {
          "internalType": "address",
          "name": "delegatee",
          "type": "address"
        },
        {
          "internalType": "uint256",
          "name": "nonce",
          "type": "uint256"
        },
        {
          "internalType": "uint256",
          "name": "expiry",
          "type": "uint256"
        },
        {
          "internalType": "uint8",
          "name": "v",
          "type": "uint8"
        },
        {
          "internalType": "bytes32",
          "name": "r",
          "type": "bytes32"
        },
        {
          "internalType": "bytes32",
          "name": "s",
          "type": "bytes32"
        }
      ],
      "name": "delegateBySig",
      "outputs": [],
      "stateMutability": "nonpayable",
      "type": "function"
    },
    {
      "inputs": [
        {
          "internalType": "address",
          "name": "account",
          "type": "address"
        }
      ],
      "name": "getCurrentVotes",
      "outputs": [
        {
          "internalType": "uint256",
          "name": "",
          "type": "uint256"
        }
      ],
      "stateMutability": "view",
      "type": "function",
      "constant": true
    },
    {
      "inputs": [
        {
          "internalType": "address",
          "name": "account",
          "type": "address"
        },
        {
          "internalType": "uint256",
          "name": "blockNumber",
          "type": "uint256"
        }
      ],
      "name": "getPriorVotes",
      "outputs": [
        {
          "internalType": "uint256",
          "name": "",
          "type": "uint256"
        }
      ],
      "stateMutability": "view",
      "type": "function",
      "constant": true
    }
  ],
  "bytecode": "0x60806040526b033b2e3c9fd0803ce80000006008556b019d971e4fe8401e74000000600c556000600d553480156200003657600080fd5b506040516200278b3803806200278b8339810160408190526200005991620001e1565b60408051808201825260098152682130bb30aa37b5b2b760b91b6020808301918252835180850190945260048452634241564160e01b908401528151919291620000a6916003916200013b565b508051620000bc9060049060208401906200013b565b50506005805460ff19166012179055506000620000d63390565b60058054610100600160a81b0319166101006001600160a01b03841690810291909117909155604051919250906000907f8be0079c531659141344cd1fd0a4f28419497f9722a3daafe3b4186f6b6457e0908290a350600a91909155600b5562000243565b828054620001499062000206565b90600052602060002090601f0160209004810192826200016d5760008555620001b8565b82601f106200018857805160ff1916838001178555620001b8565b82800160010185558215620001b8579182015b82811115620001b85782518255916020019190600101906200019b565b50620001c6929150620001ca565b5090565b5b80821115620001c65760008155600101620001cb565b60008060408385031215620001f557600080fd5b505080516020909101519092909150565b600181811c908216806200021b57607f821691505b602082108114156200023d57634e487b7160e01b600052602260045260246000fd5b50919050565b61253880620002536000396000f3fe608060405234801561001057600080fd5b50600436106102d65760003560e01c80637ecebe0011610182578063b9181611116100e9578063e4c5ff46116100a2578063f1127ed81161007c578063f1127ed8146106e9578063f2fde38b14610740578063f85b84a414610753578063fd3d27b81461075c57600080fd5b8063e4c5ff46146106a6578063e6b2fb4a146106b9578063e7a324dc146106c257600080fd5b8063b918161114610609578063c38533c61461062c578063c3cda5201461063f578063ca5c7b9114610652578063cf1c316a1461065a578063dd62ed3e1461066d57600080fd5b8063a3a7e7f31161013b578063a3a7e7f3146105a2578063a457c2d7146105b5578063a69df4b5146105c8578063a9059cbb146105d0578063a90fa603146105e3578063b4b5ea57146105f657600080fd5b80637ecebe001461052a57806389a2867c1461054a5780638da5cb5b146105735780638e875e1a146105895780639358928b1461059257806395d89b411461059a57600080fd5b806340346c49116102415780635c19a95c116101fa5780636fcfff45116101d45780636fcfff45146104c157806370a08231146104fc578063715018a61461050f578063782d6fe11461051757600080fd5b80635c19a95c1461049457806366fc237b146104a7578063674f220f146104b057600080fd5b806340346c49146103db57806340c10f19146103ee578063485d7d94146104015780634b0ee02a14610414578063587cde1e146104275780635a46d3b51461046b57600080fd5b806323b872dd1161029357806323b872dd1461037d578063282d3fdf14610390578063313ce567146103a3578063355274ea146103b857806339509351146103c05780633a1aae35146103d357600080fd5b806306fdde03146102db578063095ea7b3146102f95780630cb285e21461031c57806318160ddd14610331578063202b17601461034357806320606b7014610356575b600080fd5b6102e3610764565b6040516102f0919061227d565b60405180910390f35b61030c61030736600461219a565b6107f6565b60405190151581526020016102f0565b61032f61032a366004612264565b61080d565b005b6002545b6040519081526020016102f0565b610335610351366004612110565b610849565b6103357f8cad95687ba82c2ce50e74f7b754645e5117c3a5bec8151c0726d5857980a86681565b61030c61038b36600461215e565b610910565b61032f61039e36600461219a565b610979565b60055460405160ff90911681526020016102f0565b600854610335565b61030c6103ce36600461219a565b610b3f565b600954610335565b61032f6103e9366004612264565b610b75565b61032f6103fc36600461219a565b610bb1565b61032f61040f366004612110565b610c14565b610335610422366004612110565b610c7b565b610453610435366004612110565b6001600160a01b039081166000908152601060205260409020541690565b6040516001600160a01b0390911681526020016102f0565b610335610479366004612110565b6001600160a01b03166000908152600e602052604090205490565b61032f6104a2366004612110565b610ca9565b610335600a5481565b6006546001600160a01b0316610453565b6104e76104cf366004612110565b60126020526000908152604090205463ffffffff1681565b60405163ffffffff90911681526020016102f0565b61033561050a366004612110565b610cb6565b61032f610cd1565b61033561052536600461219a565b610d51565b610335610538366004612110565b60136020526000908152604090205481565b610335610558366004612110565b6001600160a01b03166000908152600f602052604090205490565b60055461010090046001600160a01b0316610453565b610335600b5481565b610335610fb6565b6102e3610fc6565b61032f6105b0366004612110565b610fd5565b61030c6105c336600461219a565b6110c4565b61032f611113565b61030c6105de36600461219a565b6111e7565b61032f6105f1366004612110565b6111f4565b610335610604366004612110565b611336565b61030c610617366004612110565b60076020526000908152604090205460ff1681565b61032f61063a366004612264565b6113ab565b61032f61064d3660046121c4565b6113e7565b6103356116b5565b61032f610668366004612110565b6116c0565b61033561067b36600461212b565b6001600160a01b03918216600090815260016020908152604080832093909416825291909152205490565b61032f6106b436600461219a565b611714565b610335600d5481565b6103357fe48329057bfd03d55e49b547132e39cffd9c1820ad7b9d4c5307691425d15adf81565b6107246106f7366004612224565b60116020908152600092835260408084209091529082529020805460019091015463ffffffff9091169082565b6040805163ffffffff90931683526020830191909152016102f0565b61032f61074e366004612110565b61179b565b610335600c5481565b610335611830565b606060038054610773906123d9565b80601f016020809104026020016040519081016040528092919081815260200182805461079f906123d9565b80156107ec5780601f106107c1576101008083540402835291602001916107ec565b820191906000526020600020905b8154815290600101906020018083116107cf57829003601f168201915b5050505050905090565b6000610803338484611848565b5060015b92915050565b3360009081526007602052604090205460ff168061083b57506005546001600160a01b036101009091041633145b61084457600080fd5b600b55565b6000600a5443101561085d57506000919050565b600b54431061088257506001600160a01b03166000908152600e602052604090205490565b6001600160a01b0382166000908152600f60205260408120546108a5904361239d565b6001600160a01b0384166000908152600f6020526040812054600b5492935090916108d0919061239d565b6001600160a01b0385166000908152600e602052604090205490915081906108f990849061237e565b6109039190612347565b949350505050565b919050565b600061091d84848461196d565b61096f843361096a856040518060600160405280602881526020016124b6602891396001600160a01b038a16600090815260016020908152604080832033845290915290205491906119af565b611848565b5060019392505050565b6005546001600160a01b036101009091041633146109b25760405162461bcd60e51b81526004016109a9906122d2565b60405180910390fd5b6001600160a01b038216610a085760405162461bcd60e51b815260206004820152601f60248201527f45524332303a206c6f636b20746f20746865207a65726f20616464726573730060448201526064016109a9565b610a1182610cb6565b811115610a605760405162461bcd60e51b815260206004820152601e60248201527f45524332303a206c6f636b20616d6f756e74206f76657220626c616e6365000060448201526064016109a9565b610a6b82308361196d565b6001600160a01b0382166000908152600e6020526040902054610a8f908290612307565b6001600160a01b0383166000908152600e6020526040902055600954610ab6908290612307565b600955600a546001600160a01b0383166000908152600f60205260409020541015610af857600a546001600160a01b0383166000908152600f60205260409020555b816001600160a01b03167f625fed9875dada8643f2418b838ae0bc78d9a148a18eee4ee1979ff0f3f5d42782604051610b3391815260200190565b60405180910390a25050565b3360008181526001602090815260408083206001600160a01b0387168452909152812054909161080391859061096a90866119e9565b3360009081526007602052604090205460ff1680610ba357506005546001600160a01b036101009091041633145b610bac57600080fd5b600855565b6005546001600160a01b03610100909104163314610be15760405162461bcd60e51b81526004016109a9906122d2565b610beb8282611a48565b6001600160a01b03808316600090815260106020526040812054610c10921683611b32565b5050565b6005546001600160a01b03610100909104163314610c445760405162461bcd60e51b81526004016109a9906122d2565b6001600160a01b038116331415610c5a57600080fd5b6001600160a01b03166000908152600760205260409020805460ff19169055565b6000610c8682610cb6565b6001600160a01b0383166000908152600e60205260409020546108079190612307565b610cb33382611c91565b50565b6001600160a01b031660009081526020819052604090205490565b6005546001600160a01b03610100909104163314610d015760405162461bcd60e51b81526004016109a9906122d2565b60055460405160009161010090046001600160a01b0316907f8be0079c531659141344cd1fd0a4f28419497f9722a3daafe3b4186f6b6457e0908390a360058054610100600160a81b0319169055565b6000438210610db25760405162461bcd60e51b815260206004820152602760248201527f424156413a3a6765745072696f72566f7465733a206e6f742079657420646574604482015266195c9b5a5b995960ca1b60648201526084016109a9565b6001600160a01b03831660009081526012602052604090205463ffffffff1680610de0576000915050610807565b6001600160a01b03841660009081526011602052604081208491610e056001856123b4565b63ffffffff90811682526020820192909252604001600020541611610e6e576001600160a01b038416600090815260116020526040812090610e486001846123b4565b63ffffffff1663ffffffff16815260200190815260200160002060010154915050610807565b6001600160a01b038416600090815260116020908152604080832083805290915290205463ffffffff16831015610ea9576000915050610807565b600080610eb76001846123b4565b90505b8163ffffffff168163ffffffff161115610f7f5760006002610edc84846123b4565b610ee6919061235b565b610ef090836123b4565b6001600160a01b038816600090815260116020908152604080832063ffffffff8086168552908352928190208151808301909252805490931680825260019093015491810191909152919250871415610f53576020015194506108079350505050565b805163ffffffff16871115610f6a57819350610f78565b610f756001836123b4565b92505b5050610eba565b506001600160a01b038516600090815260116020908152604080832063ffffffff9094168352929052206001015491505092915050565b6000610fc160025490565b905090565b606060048054610773906123d9565b336000908152600e6020526040808220546001600160a01b0384168352912054610fff9190612307565b6001600160a01b0382166000908152600e6020908152604080832093909355600a54600f90915291902054101561104d57600a546001600160a01b0382166000908152600f60205260409020555b336000908152600f6020526040808220546001600160a01b0384168352912054101561109457336000908152600f6020526040808220546001600160a01b03841683529120555b336000818152600e60209081526040808320839055600f909152812055610cb390826110bf82610cb6565b61196d565b6000610803338461096a856040518060600160405280602581526020016124de602591393360009081526001602090815260408083206001600160a01b038d16845290915290205491906119af565b336000908152600e60205260409020546111665760405162461bcd60e51b815260206004820152601460248201527345524332303a2063616e6e6f7420756e6c6f636b60601b60448201526064016109a9565b600061117133610849565b905061117c30610cb6565b81111561118f5761118c30610cb6565b90505b61119a30338361196d565b336000908152600e60205260409020546111b590829061239d565b336000908152600e6020908152604080832093909355600f9052204390556009546111e190829061239d565b60095550565b600061080333848461196d565b6006546001600160a01b031633146112605760405162461bcd60e51b815260206004820152602960248201527f4f776e61626c653a2063616c6c6572206973206e6f742074686520707265766960448201526837bab99037bbb732b960b91b60648201526084016109a9565b6006546001600160a01b038281169116146112cf5760405162461bcd60e51b815260206004820152602960248201527f4f776e61626c653a206e6577206f776e6572206d75737420626520707265766960448201526837bab99037bbb732b960b91b60648201526084016109a9565b6005546040516001600160a01b0380841692610100900416907f8be0079c531659141344cd1fd0a4f28419497f9722a3daafe3b4186f6b6457e090600090a3600580546001600160a01b0390921661010002610100600160a81b0319909216919091179055565b6001600160a01b03811660009081526012602052604081205463ffffffff16806113615760006113a4565b6001600160a01b0383166000908152601160205260408120906113856001846123b4565b63ffffffff1663ffffffff168152602001908152602001600020600101545b9392505050565b3360009081526007602052604090205460ff16806113d957506005546001600160a01b036101009091041633145b6113e257600080fd5b600a55565b60007f8cad95687ba82c2ce50e74f7b754645e5117c3a5bec8151c0726d5857980a866611412610764565b805190602001206114204690565b60408051602080820195909552808201939093526060830191909152306080808401919091528151808403909101815260a0830182528051908401207fe48329057bfd03d55e49b547132e39cffd9c1820ad7b9d4c5307691425d15adf60c08401526001600160a01b038b1660e084015261010083018a90526101208084018a90528251808503909101815261014084019092528151919093012061190160f01b610160830152610162820183905261018282018190529192506000906101a20160408051601f198184030181528282528051602091820120600080855291840180845281905260ff8a169284019290925260608301889052608083018790529092509060019060a0016020604051602081039080840390855afa15801561154c573d6000803e3d6000fd5b5050604051601f1901519150506001600160a01b0381166115be5760405162461bcd60e51b815260206004820152602660248201527f424156413a3a64656c656761746542795369673a20696e76616c6964207369676044820152656e617475726560d01b60648201526084016109a9565b6001600160a01b03811660009081526013602052604081208054916115e283612414565b91905055891461163f5760405162461bcd60e51b815260206004820152602260248201527f424156413a3a64656c656761746542795369673a20696e76616c6964206e6f6e604482015261636560f01b60648201526084016109a9565b8742111561169e5760405162461bcd60e51b815260206004820152602660248201527f424156413a3a64656c656761746542795369673a207369676e617475726520656044820152651e1c1a5c995960d21b60648201526084016109a9565b6116a8818b611c91565b505050505b505050505050565b6000610fc160095490565b6005546001600160a01b036101009091041633146116f05760405162461bcd60e51b81526004016109a9906122d2565b6001600160a01b03166000908152600760205260409020805460ff19166001179055565b3360009081526007602052604090205460ff168061174257506005546001600160a01b036101009091041633145b61174b57600080fd5b600c54600d541015610c10576117618282611a48565b6001600160a01b03808316600090815260106020526040812054611786921683611b32565b80600d546117949190612307565b600d555050565b6005546001600160a01b036101009091041633146117cb5760405162461bcd60e51b81526004016109a9906122d2565b6001600160a01b0381166112cf5760405162461bcd60e51b815260206004820152602660248201527f4f776e61626c653a206e6577206f776e657220697320746865207a65726f206160448201526564647265737360d01b60648201526084016109a9565b600060095461183e60025490565b610fc1919061239d565b6001600160a01b0383166118aa5760405162461bcd60e51b8152602060048201526024808201527f45524332303a20617070726f76652066726f6d20746865207a65726f206164646044820152637265737360e01b60648201526084016109a9565b6001600160a01b03821661190b5760405162461bcd60e51b815260206004820152602260248201527f45524332303a20617070726f766520746f20746865207a65726f206164647265604482015261737360f01b60648201526084016109a9565b6001600160a01b0383811660008181526001602090815260408083209487168084529482529182902085905590518481527f8c5be1e5ebec7d5bd14f71427d1e84f3dd0314c0f7b2291e5b200ac8c7c3b92591015b60405180910390a3505050565b611978838383611d26565b6001600160a01b038084166000908152601060205260408082205485841683529120546119aa92918216911683611b32565b505050565b600081848411156119d35760405162461bcd60e51b81526004016109a9919061227d565b5060006119e0848661239d565b95945050505050565b6000806119f68385612307565b9050838110156113a45760405162461bcd60e51b815260206004820152601b60248201527f536166654d6174683a206164646974696f6e206f766572666c6f77000000000060448201526064016109a9565b6001600160a01b038216611a9e5760405162461bcd60e51b815260206004820152601f60248201527f45524332303a206d696e7420746f20746865207a65726f20616464726573730060448201526064016109a9565b611aaa60008383611eb4565b600254611ab790826119e9565b6002556001600160a01b038216600090815260208190526040902054611add90826119e9565b6001600160a01b038316600081815260208181526040808320949094559251848152919290917fddf252ad1be2c89b69c2b068fc378daa952ba7f163c4a11628f55a4df523b3ef910160405180910390a35050565b816001600160a01b0316836001600160a01b031614158015611b545750600081115b156119aa576001600160a01b03831615611bf7576001600160a01b03831660009081526012602052604081205463ffffffff169081611b94576000611bd7565b6001600160a01b038516600090815260116020526040812090611bb86001856123b4565b63ffffffff1663ffffffff168152602001908152602001600020600101545b90506000611be5848361239d565b9050611bf386848484611f27565b5050505b6001600160a01b038216156119aa576001600160a01b03821660009081526012602052604081205463ffffffff169081611c32576000611c75565b6001600160a01b038416600090815260116020526040812090611c566001856123b4565b63ffffffff1663ffffffff168152602001908152602001600020600101545b90506000611c838483612307565b90506116ad85848484611f27565b6001600160a01b0380831660009081526010602052604081205490911690611cb884610cb6565b6001600160a01b0385811660008181526010602052604080822080546001600160a01b031916898616908117909155905194955093928616927f3134e8a2e6d97e929a7e54011ea5485d7d196dd5f0ba4d4ef95803e8e3fc257f9190a4611d20828483611b32565b50505050565b6001600160a01b038316611d8a5760405162461bcd60e51b815260206004820152602560248201527f45524332303a207472616e736665722066726f6d20746865207a65726f206164604482015264647265737360d81b60648201526084016109a9565b6001600160a01b038216611dec5760405162461bcd60e51b815260206004820152602360248201527f45524332303a207472616e7366657220746f20746865207a65726f206164647260448201526265737360e81b60648201526084016109a9565b611df7838383611eb4565b611e348160405180606001604052806026815260200161245c602691396001600160a01b03861660009081526020819052604090205491906119af565b6001600160a01b038085166000908152602081905260408082209390935590841681522054611e6390826119e9565b6001600160a01b038381166000818152602081815260409182902094909455518481529092918616917fddf252ad1be2c89b69c2b068fc378daa952ba7f163c4a11628f55a4df523b3ef9101611960565b6001600160a01b0383166119aa5760085481611ecf60025490565b611ed99190612307565b11156119aa5760405162461bcd60e51b815260206004820152601960248201527f45524332304361707065643a206361702065786365656465640000000000000060448201526064016109a9565b6000611f4b43604051806060016040528060348152602001612482603491396120c9565b905060008463ffffffff16118015611fa557506001600160a01b038516600090815260116020526040812063ffffffff831691611f896001886123b4565b63ffffffff908116825260208201929092526040016000205416145b15611fee576001600160a01b03851660009081526011602052604081208391611fcf6001886123b4565b63ffffffff16815260208101919091526040016000206001015561207e565b60408051808201825263ffffffff838116825260208083018681526001600160a01b038a166000908152601183528581208a851682529092529390209151825463ffffffff19169116178155905160019182015561204d90859061231f565b6001600160a01b0386166000908152601260205260409020805463ffffffff191663ffffffff929092169190911790555b60408051848152602081018490526001600160a01b038716917fdec2bacdd2f05b59de34da9b523dff8be42e5e38e818c82fdb0bae774387a724910160405180910390a25050505050565b60008164010000000084106120f15760405162461bcd60e51b81526004016109a9919061227d565b509192915050565b80356001600160a01b038116811461090b57600080fd5b60006020828403121561212257600080fd5b6113a4826120f9565b6000806040838503121561213e57600080fd5b612147836120f9565b9150612155602084016120f9565b90509250929050565b60008060006060848603121561217357600080fd5b61217c846120f9565b925061218a602085016120f9565b9150604084013590509250925092565b600080604083850312156121ad57600080fd5b6121b6836120f9565b946020939093013593505050565b60008060008060008060c087890312156121dd57600080fd5b6121e6876120f9565b95506020870135945060408701359350606087013560ff8116811461220a57600080fd5b9598949750929560808101359460a0909101359350915050565b6000806040838503121561223757600080fd5b612240836120f9565b9150602083013563ffffffff8116811461225957600080fd5b809150509250929050565b60006020828403121561227657600080fd5b5035919050565b600060208083528351808285015260005b818110156122aa5785810183015185820160400152820161228e565b818111156122bc576000604083870101525b50601f01601f1916929092016040019392505050565b6020808252818101527f4f776e61626c653a2063616c6c6572206973206e6f7420746865206f776e6572604082015260600190565b6000821982111561231a5761231a61242f565b500190565b600063ffffffff80831681851680830382111561233e5761233e61242f565b01949350505050565b60008261235657612356612445565b500490565b600063ffffffff8084168061237257612372612445565b92169190910492915050565b60008160001904831182151516156123985761239861242f565b500290565b6000828210156123af576123af61242f565b500390565b600063ffffffff838116908316818110156123d1576123d161242f565b039392505050565b600181811c908216806123ed57607f821691505b6020821081141561240e57634e487b7160e01b600052602260045260246000fd5b50919050565b60006000198214156124285761242861242f565b5060010190565b634e487b7160e01b600052601160045260246000fd5b634e487b7160e01b600052601260045260246000fdfe45524332303a207472616e7366657220616d6f756e7420657863656564732062616c616e6365424156413a3a5f7772697465436865636b706f696e743a20626c6f636b206e756d6265722065786365656473203332206269747345524332303a207472616e7366657220616d6f756e74206578636565647320616c6c6f77616e636545524332303a2064656372656173656420616c6c6f77616e63652062656c6f77207a65726fa26469706673582212208fdd90923e494e0c90463f2e14a13ad8a27f586e61afeb665311da24c3117d1064736f6c63430008070033",
  "immutableReferences": {},
  "source": "// SPDX-License-Identifier: UNLICENSED\r\n\r\npragma solidity ^0.8.0;\r\n\r\nimport \"./Ownable.sol\";\r\nimport \"./ERC20.sol\";\r\n\r\n// BAVAToken with Governance.\r\ncontract BavaToken is ERC20(\"BavaToken\", \"BAVA\"), Ownable, Authorizable {\r\n    uint256 private _cap = 1000000000e18;     // 1 billion tokens\r\n    uint256 private _totalLock;\r\n\r\n    uint256 public lockFromBlock;\r\n    uint256 public lockToBlock;\r\n    uint256 public manualMintLimit = 500000000e18;   // 1 thousand tokens\r\n    uint256 public manualMinted = 0;\r\n    \r\n\r\n    mapping(address => uint256) private _locks;\r\n    mapping(address => uint256) private _lastUnlockBlock;\r\n\r\n    event Lock(address indexed to, uint256 value);\r\n\r\n    constructor(uint256 _lockFromBlock, uint256 _lockToBlock) {\r\n        lockFromBlock = _lockFromBlock;\r\n        lockToBlock = _lockToBlock;\r\n    }\r\n\r\n    /**\r\n     * @dev Returns the cap on the token's total supply.\r\n     */\r\n    function cap() public view returns (uint256) {\r\n        return _cap;\r\n    }\r\n    \r\n    // Update the total cap - can go up or down but wont destroy prevoius tokens.\r\n    function capUpdate(uint256 _newCap) public onlyAuthorized {\r\n        _cap = _newCap;\r\n    }\r\n    \r\n     // Update the lockFromBlock\r\n    function lockFromUpdate(uint256 _newLockFrom) public onlyAuthorized {\r\n        lockFromBlock = _newLockFrom;\r\n    }\r\n    \r\n     // Update the lockToBlock\r\n    function lockToUpdate(uint256 _newLockTo) public onlyAuthorized {\r\n        lockToBlock = _newLockTo;\r\n    }\r\n\r\n    function unlockedSupply() public view returns (uint256) {\r\n        return (totalSupply()-_totalLock);\r\n    }\r\n    \r\n    function lockedSupply() public view returns (uint256) {\r\n        return totalLock();\r\n    }\r\n    \r\n    function circulatingSupply() public view returns (uint256) {\r\n        return totalSupply();\r\n    }\r\n\r\n    function totalLock() public view returns (uint256) {\r\n        return _totalLock;\r\n    }\r\n\r\n    /**\r\n     * @dev See {ERC20-_beforeTokenTransfer}.\r\n     *\r\n     * Requirements:\r\n     *\r\n     * - minted tokens must not cause the total supply to go over the cap.\r\n     */\r\n    function _beforeTokenTransfer(address from, address to, uint256 amount) internal virtual override {\r\n        super._beforeTokenTransfer(from, to, amount);\r\n\r\n        if (from == address(0)) { // When minting tokens\r\n            require(totalSupply()+amount <= _cap, \"ERC20Capped: cap exceeded\");\r\n        }\r\n    }\r\n\r\n    /**\r\n     * @dev Moves tokens `amount` from `sender` to `recipient`.\r\n     *\r\n     * This is internal function is equivalent to {transfer}, and can be used to\r\n     * e.g. implement automatic token fees, slashing mechanisms, etc.\r\n     *\r\n     * Emits a {Transfer} event.\r\n     *\r\n     * Requirements:\r\n     *\r\n     * - `sender` cannot be the zero address.\r\n     * - `recipient` cannot be the zero address.\r\n     * - `sender` must have a balance of at least `amount`.\r\n     */\r\n    function _transfer(address sender, address recipient, uint256 amount) internal virtual override {\r\n        super._transfer(sender, recipient, amount);\r\n        _moveDelegates(_delegates[sender], _delegates[recipient], amount);\r\n    }\r\n\r\n    /// @notice Creates `_amount` token to `_to`. Must only be called by the owner (MasterChef).\r\n    function mint(address _to, uint256 _amount) public onlyOwner {\r\n        _mint(_to, _amount);\r\n        _moveDelegates(address(0), _delegates[_to], _amount);\r\n    }\r\n    \r\n    function manualMint(address _to, uint256 _amount) public onlyAuthorized {\r\n        if(manualMinted < manualMintLimit){\r\n            _mint(_to, _amount);\r\n            _moveDelegates(address(0), _delegates[_to], _amount);\r\n            manualMinted = manualMinted+(_amount);\r\n        }\r\n    }\r\n\r\n    function totalBalanceOf(address _holder) public view returns (uint256) {\r\n        return _locks[_holder]+(balanceOf(_holder));\r\n    }\r\n\r\n    function lockOf(address _holder) public view returns (uint256) {\r\n        return _locks[_holder];\r\n    }\r\n\r\n    function lastUnlockBlock(address _holder) public view returns (uint256) {\r\n        return _lastUnlockBlock[_holder];\r\n    }\r\n\r\n    function lock(address _holder, uint256 _amount) public onlyOwner {\r\n        require(_holder != address(0), \"ERC20: lock to the zero address\");\r\n        require(_amount <= balanceOf(_holder), \"ERC20: lock amount over blance\");\r\n\r\n        _transfer(_holder, address(this), _amount);\r\n\r\n        _locks[_holder] = _locks[_holder]+(_amount);\r\n        _totalLock = _totalLock+(_amount);\r\n        if (_lastUnlockBlock[_holder] < lockFromBlock) {\r\n            _lastUnlockBlock[_holder] = lockFromBlock;\r\n        }\r\n        emit Lock(_holder, _amount);\r\n    }\r\n\r\n    function canUnlockAmount(address _holder) public view returns (uint256) {\r\n        if (block.number < lockFromBlock) {\r\n            return 0;\r\n        }\r\n        else if (block.number >= lockToBlock) {\r\n            return _locks[_holder];\r\n        }\r\n        else {\r\n            uint256 releaseBlock = block.number-(_lastUnlockBlock[_holder]);\r\n            uint256 numberLockBlock = lockToBlock-(_lastUnlockBlock[_holder]);\r\n            return _locks[_holder]*(releaseBlock)/(numberLockBlock);\r\n        }\r\n    }\r\n\r\n    function unlock() public {\r\n        require(_locks[msg.sender] > 0, \"ERC20: cannot unlock\");\r\n        \r\n        uint256 amount = canUnlockAmount(msg.sender);\r\n        // just for sure\r\n        if (amount > balanceOf(address(this))) {\r\n            amount = balanceOf(address(this));\r\n        }\r\n        _transfer(address(this), msg.sender, amount);\r\n        _locks[msg.sender] = _locks[msg.sender]-(amount);\r\n        _lastUnlockBlock[msg.sender] = block.number;\r\n        _totalLock = _totalLock-(amount);\r\n    }\r\n\r\n    // This function is for dev address migrate all balance to a multi sig address\r\n    function transferAll(address _to) public {\r\n        _locks[_to] = _locks[_to]+(_locks[msg.sender]);\r\n\r\n        if (_lastUnlockBlock[_to] < lockFromBlock) {\r\n            _lastUnlockBlock[_to] = lockFromBlock;\r\n        }\r\n\r\n        if (_lastUnlockBlock[_to] < _lastUnlockBlock[msg.sender]) {\r\n            _lastUnlockBlock[_to] = _lastUnlockBlock[msg.sender];\r\n        }\r\n\r\n        _locks[msg.sender] = 0;\r\n        _lastUnlockBlock[msg.sender] = 0;\r\n\r\n        _transfer(msg.sender, _to, balanceOf(msg.sender));\r\n    }\r\n\r\n    // Copied and modified from YAM code:\r\n    // https://github.com/yam-finance/yam-protocol/blob/master/contracts/token/YAMGovernanceStorage.sol\r\n    // https://github.com/yam-finance/yam-protocol/blob/master/contracts/token/YAMGovernance.sol\r\n    // Which is copied and modified from COMPOUND:\r\n    // https://github.com/compound-finance/compound-protocol/blob/master/contracts/Governance/Comp.sol\r\n\r\n    /// @dev A record of each accounts delegate\r\n    mapping (address => address) internal _delegates;\r\n\r\n    /// @notice A checkpoint for marking number of votes from a given block\r\n    struct Checkpoint {\r\n        uint32 fromBlock;\r\n        uint256 votes;\r\n    }\r\n\r\n    /// @notice A record of votes checkpoints for each account, by index\r\n    mapping (address => mapping (uint32 => Checkpoint)) public checkpoints;\r\n\r\n    /// @notice The number of checkpoints for each account\r\n    mapping (address => uint32) public numCheckpoints;\r\n\r\n    /// @notice The EIP-712 typehash for the contract's domain\r\n    bytes32 public constant DOMAIN_TYPEHASH = keccak256(\"EIP712Domain(string name,uint256 chainId,address verifyingContract)\");\r\n\r\n    /// @notice The EIP-712 typehash for the delegation struct used by the contract\r\n    bytes32 public constant DELEGATION_TYPEHASH = keccak256(\"Delegation(address delegatee,uint256 nonce,uint256 expiry)\");\r\n\r\n    /// @notice A record of states for signing / validating signatures\r\n    mapping (address => uint) public nonces;\r\n\r\n      /// @notice An event thats emitted when an account changes its delegate\r\n    event DelegateChanged(address indexed delegator, address indexed fromDelegate, address indexed toDelegate);\r\n\r\n    /// @notice An event thats emitted when a delegate account's vote balance changes\r\n    event DelegateVotesChanged(address indexed delegate, uint previousBalance, uint newBalance);\r\n\r\n    /**\r\n     * @notice Delegate votes from `msg.sender` to `delegatee`\r\n     * @param delegator The address to get delegatee for\r\n     */\r\n    function delegates(address delegator)\r\n        external\r\n        view\r\n        returns (address)\r\n    {\r\n        return _delegates[delegator];\r\n    }\r\n\r\n   /**\r\n    * @notice Delegate votes from `msg.sender` to `delegatee`\r\n    * @param delegatee The address to delegate votes to\r\n    */\r\n    function delegate(address delegatee) external {\r\n        return _delegate(msg.sender, delegatee);\r\n    }\r\n\r\n    /**\r\n     * @notice Delegates votes from signatory to `delegatee`\r\n     * @param delegatee The address to delegate votes to\r\n     * @param nonce The contract state required to match the signature\r\n     * @param expiry The time at which to expire the signature\r\n     * @param v The recovery byte of the signature\r\n     * @param r Half of the ECDSA signature pair\r\n     * @param s Half of the ECDSA signature pair\r\n     */\r\n    function delegateBySig(\r\n        address delegatee,\r\n        uint nonce,\r\n        uint expiry,\r\n        uint8 v,\r\n        bytes32 r,\r\n        bytes32 s\r\n    )\r\n        external\r\n    {\r\n        bytes32 domainSeparator = keccak256(\r\n            abi.encode(\r\n                DOMAIN_TYPEHASH,\r\n                keccak256(bytes(name())),\r\n                getChainId(),\r\n                address(this)\r\n            )\r\n        );\r\n\r\n        bytes32 structHash = keccak256(\r\n            abi.encode(\r\n                DELEGATION_TYPEHASH,\r\n                delegatee,\r\n                nonce,\r\n                expiry\r\n            )\r\n        );\r\n\r\n        bytes32 digest = keccak256(\r\n            abi.encodePacked(\r\n                \"\\x19\\x01\",\r\n                domainSeparator,\r\n                structHash\r\n            )\r\n        );\r\n\r\n        address signatory = ecrecover(digest, v, r, s);\r\n        require(signatory != address(0), \"BAVA::delegateBySig: invalid signature\");\r\n        require(nonce == nonces[signatory]++, \"BAVA::delegateBySig: invalid nonce\");\r\n        require(block.timestamp <= expiry, \"BAVA::delegateBySig: signature expired\");\r\n        return _delegate(signatory, delegatee);\r\n    }\r\n\r\n    /**\r\n     * @notice Gets the current votes balance for `account`\r\n     * @param account The address to get votes balance\r\n     * @return The number of current votes for `account`\r\n     */\r\n    function getCurrentVotes(address account)\r\n        external\r\n        view\r\n        returns (uint256)\r\n    {\r\n        uint32 nCheckpoints = numCheckpoints[account];\r\n        return nCheckpoints > 0 ? checkpoints[account][nCheckpoints - 1].votes : 0;\r\n    }\r\n\r\n    /**\r\n     * @notice Determine the prior number of votes for an account as of a block number\r\n     * @dev Block number must be a finalized block or else this function will revert to prevent misinformation.\r\n     * @param account The address of the account to check\r\n     * @param blockNumber The block number to get the vote balance at\r\n     * @return The number of votes the account had as of the given block\r\n     */\r\n    function getPriorVotes(address account, uint blockNumber)\r\n        external\r\n        view\r\n        returns (uint256)\r\n    {\r\n        require(blockNumber < block.number, \"BAVA::getPriorVotes: not yet determined\");\r\n\r\n        uint32 nCheckpoints = numCheckpoints[account];\r\n        if (nCheckpoints == 0) {\r\n            return 0;\r\n        }\r\n\r\n        // First check most recent balance\r\n        if (checkpoints[account][nCheckpoints - 1].fromBlock <= blockNumber) {\r\n            return checkpoints[account][nCheckpoints - 1].votes;\r\n        }\r\n\r\n        // Next check implicit zero balance\r\n        if (checkpoints[account][0].fromBlock > blockNumber) {\r\n            return 0;\r\n        }\r\n\r\n        uint32 lower = 0;\r\n        uint32 upper = nCheckpoints - 1;\r\n        while (upper > lower) {\r\n            uint32 center = upper - (upper - lower) / 2; // ceil, avoiding overflow\r\n            Checkpoint memory cp = checkpoints[account][center];\r\n            if (cp.fromBlock == blockNumber) {\r\n                return cp.votes;\r\n            } else if (cp.fromBlock < blockNumber) {\r\n                lower = center;\r\n            } else {\r\n                upper = center - 1;\r\n            }\r\n        }\r\n        return checkpoints[account][lower].votes;\r\n    }\r\n\r\n    function _delegate(address delegator, address delegatee)\r\n        internal\r\n    {\r\n        address currentDelegate = _delegates[delegator];\r\n        uint256 delegatorBalance = balanceOf(delegator);\r\n        _delegates[delegator] = delegatee;\r\n\r\n        emit DelegateChanged(delegator, currentDelegate, delegatee);\r\n\r\n        _moveDelegates(currentDelegate, delegatee, delegatorBalance);\r\n    }\r\n\r\n    function _moveDelegates(address srcRep, address dstRep, uint256 amount) internal {\r\n        if (srcRep != dstRep && amount > 0) {\r\n            if (srcRep != address(0)) {\r\n                // decrease old representative\r\n                uint32 srcRepNum = numCheckpoints[srcRep];\r\n                uint256 srcRepOld = srcRepNum > 0 ? checkpoints[srcRep][srcRepNum - 1].votes : 0;\r\n                uint256 srcRepNew = srcRepOld-(amount);\r\n                _writeCheckpoint(srcRep, srcRepNum, srcRepOld, srcRepNew);\r\n            }\r\n\r\n            if (dstRep != address(0)) {\r\n                // increase new representative\r\n                uint32 dstRepNum = numCheckpoints[dstRep];\r\n                uint256 dstRepOld = dstRepNum > 0 ? checkpoints[dstRep][dstRepNum - 1].votes : 0;\r\n                uint256 dstRepNew = dstRepOld+(amount);\r\n                _writeCheckpoint(dstRep, dstRepNum, dstRepOld, dstRepNew);\r\n            }\r\n        }\r\n    }\r\n\r\n    function _writeCheckpoint(\r\n        address delegatee,\r\n        uint32 nCheckpoints,\r\n        uint256 oldVotes,\r\n        uint256 newVotes\r\n    )\r\n        internal\r\n    {\r\n        uint32 blockNumber = safe32(block.number, \"BAVA::_writeCheckpoint: block number exceeds 32 bits\");\r\n\r\n        if (nCheckpoints > 0 && checkpoints[delegatee][nCheckpoints - 1].fromBlock == blockNumber) {\r\n            checkpoints[delegatee][nCheckpoints - 1].votes = newVotes;\r\n        } else {\r\n            checkpoints[delegatee][nCheckpoints] = Checkpoint(blockNumber, newVotes);\r\n            numCheckpoints[delegatee] = nCheckpoints + 1;\r\n        }\r\n\r\n        emit DelegateVotesChanged(delegatee, oldVotes, newVotes);\r\n    }\r\n\r\n    function safe32(uint n, string memory errorMessage) internal pure returns (uint32) {\r\n        require(n < 2**32, errorMessage);\r\n        return uint32(n);\r\n    }\r\n\r\n    function getChainId() internal view returns (uint) {\r\n        uint256 chainId;\r\n        assembly { chainId := chainid() }\r\n        return chainId;\r\n    }\r\n}",
  "sourcePath": "C:/Users/cheek/Desktop/Developer doc/Visual Studio Code/Baklava/bao2Finance/src/contracts/BavaToken.sol",
  "compiler": {
    "name": "solc",
    "version": "0.8.7+commit.e28d00a7.Emscripten.clang"
  },
  "schemaVersion": "3.2.3",
  "updatedAt": "2021-12-03T07:30:03.690Z",
  "networkType": "ethereum",
  "devdoc": {
    "kind": "dev",
    "methods": {
      "allowance(address,address)": {
        "details": "See {IERC20-allowance}."
      },
      "approve(address,uint256)": {
        "details": "See {IERC20-approve}. Requirements: - `spender` cannot be the zero address."
      },
      "balanceOf(address)": {
        "details": "See {IERC20-balanceOf}."
      },
      "cap()": {
        "details": "Returns the cap on the token's total supply."
      },
      "decimals()": {
        "details": "Returns the number of decimals used to get its user representation. For example, if `decimals` equals `2`, a balance of `505` tokens should be displayed to a user as `5,05` (`505 / 10 ** 2`). Tokens usually opt for a value of 18, imitating the relationship between Ether and Wei. This is the value {ERC20} uses, unless {_setupDecimals} is called. NOTE: This information is only used for _display_ purposes: it in no way affects any of the arithmetic of the contract, including {IERC20-balanceOf} and {IERC20-transfer}."
      },
      "decreaseAllowance(address,uint256)": {
        "details": "Atomically decreases the allowance granted to `spender` by the caller. This is an alternative to {approve} that can be used as a mitigation for problems described in {IERC20-approve}. Emits an {Approval} event indicating the updated allowance. Requirements: - `spender` cannot be the zero address. - `spender` must have allowance for the caller of at least `subtractedValue`."
      },
      "delegate(address)": {
        "params": {
          "delegatee": "The address to delegate votes to"
        }
      },
      "delegateBySig(address,uint256,uint256,uint8,bytes32,bytes32)": {
        "params": {
          "delegatee": "The address to delegate votes to",
          "expiry": "The time at which to expire the signature",
          "nonce": "The contract state required to match the signature",
          "r": "Half of the ECDSA signature pair",
          "s": "Half of the ECDSA signature pair",
          "v": "The recovery byte of the signature"
        }
      },
      "delegates(address)": {
        "params": {
          "delegator": "The address to get delegatee for"
        }
      },
      "getCurrentVotes(address)": {
        "params": {
          "account": "The address to get votes balance"
        },
        "returns": {
          "_0": "The number of current votes for `account`"
        }
      },
      "getPriorVotes(address,uint256)": {
        "details": "Block number must be a finalized block or else this function will revert to prevent misinformation.",
        "params": {
          "account": "The address of the account to check",
          "blockNumber": "The block number to get the vote balance at"
        },
        "returns": {
          "_0": "The number of votes the account had as of the given block"
        }
      },
      "increaseAllowance(address,uint256)": {
        "details": "Atomically increases the allowance granted to `spender` by the caller. This is an alternative to {approve} that can be used as a mitigation for problems described in {IERC20-approve}. Emits an {Approval} event indicating the updated allowance. Requirements: - `spender` cannot be the zero address."
      },
      "name()": {
        "details": "Returns the name of the token."
      },
      "owner()": {
        "details": "Returns the address of the current owner."
      },
      "previousOwner()": {
        "details": "Returns the address of the previous owner."
      },
      "renounceOwnership()": {
        "details": "Leaves the contract without owner. It will not be possible to call `onlyOwner` functions anymore. Can only be called by the current owner. NOTE: Renouncing ownership will leave the contract without an owner, thereby removing any functionality that is only available to the owner."
      },
      "symbol()": {
        "details": "Returns the symbol of the token, usually a shorter version of the name."
      },
      "totalSupply()": {
        "details": "See {IERC20-totalSupply}."
      },
      "transfer(address,uint256)": {
        "details": "See {IERC20-transfer}. Requirements: - `recipient` cannot be the zero address. - the caller must have a balance of at least `amount`."
      },
      "transferFrom(address,address,uint256)": {
        "details": "See {IERC20-transferFrom}. Emits an {Approval} event indicating the updated allowance. This is not required by the EIP. See the note at the beginning of {ERC20}; Requirements: - `sender` and `recipient` cannot be the zero address. - `sender` must have a balance of at least `amount`. - the caller must have allowance for ``sender``'s tokens of at least `amount`."
      },
      "transferOwnership(address)": {
        "details": "Transfers ownership of the contract to a new account (`newOwner`). Can only be called by the current owner."
      }
    },
    "stateVariables": {
      "_delegates": {
        "details": "A record of each accounts delegate"
      }
    },
    "version": 1
  },
  "userdoc": {
    "events": {
      "DelegateChanged(address,address,address)": {
        "notice": "An event thats emitted when an account changes its delegate"
      },
      "DelegateVotesChanged(address,uint256,uint256)": {
        "notice": "An event thats emitted when a delegate account's vote balance changes"
      }
    },
    "kind": "user",
    "methods": {
      "DELEGATION_TYPEHASH()": {
        "notice": "The EIP-712 typehash for the delegation struct used by the contract"
      },
      "DOMAIN_TYPEHASH()": {
        "notice": "The EIP-712 typehash for the contract's domain"
      },
      "checkpoints(address,uint32)": {
        "notice": "A record of votes checkpoints for each account, by index"
      },
      "delegate(address)": {
        "notice": "Delegate votes from `msg.sender` to `delegatee`"
      },
      "delegateBySig(address,uint256,uint256,uint8,bytes32,bytes32)": {
        "notice": "Delegates votes from signatory to `delegatee`"
      },
      "delegates(address)": {
        "notice": "Delegate votes from `msg.sender` to `delegatee`"
      },
      "getCurrentVotes(address)": {
        "notice": "Gets the current votes balance for `account`"
      },
      "getPriorVotes(address,uint256)": {
        "notice": "Determine the prior number of votes for an account as of a block number"
      },
      "mint(address,uint256)": {
        "notice": "Creates `_amount` token to `_to`. Must only be called by the owner (MasterChef)."
      },
      "nonces(address)": {
        "notice": "A record of states for signing / validating signatures"
      },
      "numCheckpoints(address)": {
        "notice": "The number of checkpoints for each account"
      }
    },
    "version": 1
  }
}