{
  "contractName": "BavaToken",
  "abi": [
    {
      "inputs": [
        {
          "internalType": "uint256",
          "name": "_lockFromBlock",
          "type": "uint256"
        },
        {
          "internalType": "uint256",
          "name": "_lockToBlock",
          "type": "uint256"
        },
        {
          "internalType": "address",
          "name": "_disPool",
          "type": "address"
        },
        {
          "internalType": "uint256",
          "name": "_burnPercent",
          "type": "uint256"
        },
        {
          "internalType": "uint256",
          "name": "_disPercent",
          "type": "uint256"
        },
        {
          "internalType": "uint256",
          "name": "_taxStartDate",
          "type": "uint256"
        }
      ],
      "stateMutability": "nonpayable",
      "type": "constructor"
    },
    {
      "anonymous": false,
      "inputs": [
        {
          "indexed": true,
          "internalType": "address",
          "name": "owner",
          "type": "address"
        },
        {
          "indexed": true,
          "internalType": "address",
          "name": "spender",
          "type": "address"
        },
        {
          "indexed": false,
          "internalType": "uint256",
          "name": "value",
          "type": "uint256"
        }
      ],
      "name": "Approval",
      "type": "event"
    },
    {
      "anonymous": false,
      "inputs": [
        {
          "indexed": true,
          "internalType": "address",
          "name": "_from",
          "type": "address"
        },
        {
          "indexed": false,
          "internalType": "uint256",
          "name": "_value",
          "type": "uint256"
        }
      ],
      "name": "Burn",
      "type": "event"
    },
    {
      "anonymous": false,
      "inputs": [
        {
          "indexed": true,
          "internalType": "address",
          "name": "delegator",
          "type": "address"
        },
        {
          "indexed": true,
          "internalType": "address",
          "name": "fromDelegate",
          "type": "address"
        },
        {
          "indexed": true,
          "internalType": "address",
          "name": "toDelegate",
          "type": "address"
        }
      ],
      "name": "DelegateChanged",
      "type": "event"
    },
    {
      "anonymous": false,
      "inputs": [
        {
          "indexed": true,
          "internalType": "address",
          "name": "delegate",
          "type": "address"
        },
        {
          "indexed": false,
          "internalType": "uint256",
          "name": "previousBalance",
          "type": "uint256"
        },
        {
          "indexed": false,
          "internalType": "uint256",
          "name": "newBalance",
          "type": "uint256"
        }
      ],
      "name": "DelegateVotesChanged",
      "type": "event"
    },
    {
      "anonymous": false,
      "inputs": [
        {
          "indexed": true,
          "internalType": "address",
          "name": "to",
          "type": "address"
        },
        {
          "indexed": false,
          "internalType": "uint256",
          "name": "value",
          "type": "uint256"
        }
      ],
      "name": "Lock",
      "type": "event"
    },
    {
      "anonymous": false,
      "inputs": [
        {
          "indexed": true,
          "internalType": "address",
          "name": "previousOwner",
          "type": "address"
        },
        {
          "indexed": true,
          "internalType": "address",
          "name": "newOwner",
          "type": "address"
        }
      ],
      "name": "OwnershipTransferred",
      "type": "event"
    },
    {
      "anonymous": false,
      "inputs": [
        {
          "indexed": true,
          "internalType": "address",
          "name": "from",
          "type": "address"
        },
        {
          "indexed": true,
          "internalType": "address",
          "name": "to",
          "type": "address"
        },
        {
          "indexed": false,
          "internalType": "uint256",
          "name": "value",
          "type": "uint256"
        }
      ],
      "name": "Transfer",
      "type": "event"
    },
    {
      "inputs": [],
      "name": "DELEGATION_TYPEHASH",
      "outputs": [
        {
          "internalType": "bytes32",
          "name": "",
          "type": "bytes32"
        }
      ],
      "stateMutability": "view",
      "type": "function",
      "constant": true
    },
    {
      "inputs": [],
      "name": "DOMAIN_TYPEHASH",
      "outputs": [
        {
          "internalType": "bytes32",
          "name": "",
          "type": "bytes32"
        }
      ],
      "stateMutability": "view",
      "type": "function",
      "constant": true
    },
    {
      "inputs": [
        {
          "internalType": "address",
          "name": "_toAdd",
          "type": "address"
        }
      ],
      "name": "addAuthorized",
      "outputs": [],
      "stateMutability": "nonpayable",
      "type": "function"
    },
    {
      "inputs": [
        {
          "internalType": "address",
          "name": "owner",
          "type": "address"
        },
        {
          "internalType": "address",
          "name": "spender",
          "type": "address"
        }
      ],
      "name": "allowance",
      "outputs": [
        {
          "internalType": "uint256",
          "name": "",
          "type": "uint256"
        }
      ],
      "stateMutability": "view",
      "type": "function",
      "constant": true
    },
    {
      "inputs": [
        {
          "internalType": "address",
          "name": "spender",
          "type": "address"
        },
        {
          "internalType": "uint256",
          "name": "amount",
          "type": "uint256"
        }
      ],
      "name": "approve",
      "outputs": [
        {
          "internalType": "bool",
          "name": "",
          "type": "bool"
        }
      ],
      "stateMutability": "nonpayable",
      "type": "function"
    },
    {
      "inputs": [
        {
          "internalType": "address",
          "name": "",
          "type": "address"
        }
      ],
      "name": "authorized",
      "outputs": [
        {
          "internalType": "bool",
          "name": "",
          "type": "bool"
        }
      ],
      "stateMutability": "view",
      "type": "function",
      "constant": true
    },
    {
      "inputs": [
        {
          "internalType": "address",
          "name": "account",
          "type": "address"
        }
      ],
      "name": "balanceOf",
      "outputs": [
        {
          "internalType": "uint256",
          "name": "",
          "type": "uint256"
        }
      ],
      "stateMutability": "view",
      "type": "function",
      "constant": true
    },
    {
      "inputs": [],
      "name": "burnPercent",
      "outputs": [
        {
          "internalType": "uint256",
          "name": "",
          "type": "uint256"
        }
      ],
      "stateMutability": "view",
      "type": "function",
      "constant": true
    },
    {
      "inputs": [
        {
          "internalType": "address",
          "name": "",
          "type": "address"
        },
        {
          "internalType": "uint32",
          "name": "",
          "type": "uint32"
        }
      ],
      "name": "checkpoints",
      "outputs": [
        {
          "internalType": "uint32",
          "name": "fromBlock",
          "type": "uint32"
        },
        {
          "internalType": "uint256",
          "name": "votes",
          "type": "uint256"
        }
      ],
      "stateMutability": "view",
      "type": "function",
      "constant": true
    },
    {
      "inputs": [],
      "name": "decimals",
      "outputs": [
        {
          "internalType": "uint8",
          "name": "",
          "type": "uint8"
        }
      ],
      "stateMutability": "view",
      "type": "function",
      "constant": true
    },
    {
      "inputs": [
        {
          "internalType": "address",
          "name": "spender",
          "type": "address"
        },
        {
          "internalType": "uint256",
          "name": "subtractedValue",
          "type": "uint256"
        }
      ],
      "name": "decreaseAllowance",
      "outputs": [
        {
          "internalType": "bool",
          "name": "",
          "type": "bool"
        }
      ],
      "stateMutability": "nonpayable",
      "type": "function"
    },
    {
      "inputs": [],
      "name": "disPercent",
      "outputs": [
        {
          "internalType": "uint256",
          "name": "",
          "type": "uint256"
        }
      ],
      "stateMutability": "view",
      "type": "function",
      "constant": true
    },
    {
      "inputs": [],
      "name": "disPool",
      "outputs": [
        {
          "internalType": "address",
          "name": "",
          "type": "address"
        }
      ],
      "stateMutability": "view",
      "type": "function",
      "constant": true
    },
    {
      "inputs": [],
      "name": "dynamicTaxReduction",
      "outputs": [
        {
          "internalType": "uint256",
          "name": "",
          "type": "uint256"
        }
      ],
      "stateMutability": "view",
      "type": "function",
      "constant": true
    },
    {
      "inputs": [
        {
          "internalType": "address",
          "name": "spender",
          "type": "address"
        },
        {
          "internalType": "uint256",
          "name": "addedValue",
          "type": "uint256"
        }
      ],
      "name": "increaseAllowance",
      "outputs": [
        {
          "internalType": "bool",
          "name": "",
          "type": "bool"
        }
      ],
      "stateMutability": "nonpayable",
      "type": "function"
    },
    {
      "inputs": [
        {
          "internalType": "address",
          "name": "",
          "type": "address"
        }
      ],
      "name": "isWhitelistedFrom",
      "outputs": [
        {
          "internalType": "bool",
          "name": "",
          "type": "bool"
        }
      ],
      "stateMutability": "view",
      "type": "function",
      "constant": true
    },
    {
      "inputs": [
        {
          "internalType": "address",
          "name": "",
          "type": "address"
        }
      ],
      "name": "isWhitelistedTo",
      "outputs": [
        {
          "internalType": "bool",
          "name": "",
          "type": "bool"
        }
      ],
      "stateMutability": "view",
      "type": "function",
      "constant": true
    },
    {
      "inputs": [],
      "name": "lockFromBlock",
      "outputs": [
        {
          "internalType": "uint256",
          "name": "",
          "type": "uint256"
        }
      ],
      "stateMutability": "view",
      "type": "function",
      "constant": true
    },
    {
      "inputs": [],
      "name": "lockToBlock",
      "outputs": [
        {
          "internalType": "uint256",
          "name": "",
          "type": "uint256"
        }
      ],
      "stateMutability": "view",
      "type": "function",
      "constant": true
    },
    {
      "inputs": [],
      "name": "manualMintLimit",
      "outputs": [
        {
          "internalType": "uint256",
          "name": "",
          "type": "uint256"
        }
      ],
      "stateMutability": "view",
      "type": "function",
      "constant": true
    },
    {
      "inputs": [],
      "name": "manualMinted",
      "outputs": [
        {
          "internalType": "uint256",
          "name": "",
          "type": "uint256"
        }
      ],
      "stateMutability": "view",
      "type": "function",
      "constant": true
    },
    {
      "inputs": [],
      "name": "minimumSupply",
      "outputs": [
        {
          "internalType": "uint256",
          "name": "",
          "type": "uint256"
        }
      ],
      "stateMutability": "view",
      "type": "function",
      "constant": true
    },
    {
      "inputs": [],
      "name": "name",
      "outputs": [
        {
          "internalType": "string",
          "name": "",
          "type": "string"
        }
      ],
      "stateMutability": "view",
      "type": "function",
      "constant": true
    },
    {
      "inputs": [
        {
          "internalType": "address",
          "name": "",
          "type": "address"
        }
      ],
      "name": "nonces",
      "outputs": [
        {
          "internalType": "uint256",
          "name": "",
          "type": "uint256"
        }
      ],
      "stateMutability": "view",
      "type": "function",
      "constant": true
    },
    {
      "inputs": [
        {
          "internalType": "address",
          "name": "",
          "type": "address"
        }
      ],
      "name": "numCheckpoints",
      "outputs": [
        {
          "internalType": "uint32",
          "name": "",
          "type": "uint32"
        }
      ],
      "stateMutability": "view",
      "type": "function",
      "constant": true
    },
    {
      "inputs": [],
      "name": "owner",
      "outputs": [
        {
          "internalType": "address",
          "name": "",
          "type": "address"
        }
      ],
      "stateMutability": "view",
      "type": "function",
      "constant": true
    },
    {
      "inputs": [],
      "name": "previousOwner",
      "outputs": [
        {
          "internalType": "address",
          "name": "",
          "type": "address"
        }
      ],
      "stateMutability": "view",
      "type": "function",
      "constant": true
    },
    {
      "inputs": [
        {
          "internalType": "address",
          "name": "newOwner",
          "type": "address"
        }
      ],
      "name": "reclaimOwnership",
      "outputs": [],
      "stateMutability": "nonpayable",
      "type": "function"
    },
    {
      "inputs": [
        {
          "internalType": "address",
          "name": "_toRemove",
          "type": "address"
        }
      ],
      "name": "removeAuthorized",
      "outputs": [],
      "stateMutability": "nonpayable",
      "type": "function"
    },
    {
      "inputs": [],
      "name": "renounceOwnership",
      "outputs": [],
      "stateMutability": "nonpayable",
      "type": "function"
    },
    {
      "inputs": [],
      "name": "symbol",
      "outputs": [
        {
          "internalType": "string",
          "name": "",
          "type": "string"
        }
      ],
      "stateMutability": "view",
      "type": "function",
      "constant": true
    },
    {
      "inputs": [],
      "name": "taxReductionDuration",
      "outputs": [
        {
          "internalType": "uint256",
          "name": "",
          "type": "uint256"
        }
      ],
      "stateMutability": "view",
      "type": "function",
      "constant": true
    },
    {
      "inputs": [],
      "name": "taxStartDate",
      "outputs": [
        {
          "internalType": "uint256",
          "name": "",
          "type": "uint256"
        }
      ],
      "stateMutability": "view",
      "type": "function",
      "constant": true
    },
    {
      "inputs": [],
      "name": "totalSupply",
      "outputs": [
        {
          "internalType": "uint256",
          "name": "",
          "type": "uint256"
        }
      ],
      "stateMutability": "view",
      "type": "function",
      "constant": true
    },
    {
      "inputs": [
        {
          "internalType": "address",
          "name": "newOwner",
          "type": "address"
        }
      ],
      "name": "transferOwnership",
      "outputs": [],
      "stateMutability": "nonpayable",
      "type": "function"
    },
    {
      "inputs": [],
      "name": "cap",
      "outputs": [
        {
          "internalType": "uint256",
          "name": "",
          "type": "uint256"
        }
      ],
      "stateMutability": "view",
      "type": "function",
      "constant": true
    },
    {
      "inputs": [
        {
          "internalType": "uint256",
          "name": "_newCap",
          "type": "uint256"
        }
      ],
      "name": "capUpdate",
      "outputs": [],
      "stateMutability": "nonpayable",
      "type": "function"
    },
    {
      "inputs": [
        {
          "internalType": "uint256",
          "name": "_newLockFrom",
          "type": "uint256"
        }
      ],
      "name": "lockFromUpdate",
      "outputs": [],
      "stateMutability": "nonpayable",
      "type": "function"
    },
    {
      "inputs": [
        {
          "internalType": "uint256",
          "name": "_newLockTo",
          "type": "uint256"
        }
      ],
      "name": "lockToUpdate",
      "outputs": [],
      "stateMutability": "nonpayable",
      "type": "function"
    },
    {
      "inputs": [
        {
          "internalType": "uint256",
          "name": "_newTaxStartDate",
          "type": "uint256"
        }
      ],
      "name": "taxStartDateUpdate",
      "outputs": [],
      "stateMutability": "nonpayable",
      "type": "function"
    },
    {
      "inputs": [
        {
          "internalType": "uint256",
          "name": "_newBurnPercent",
          "type": "uint256"
        }
      ],
      "name": "burnPercentUpdate",
      "outputs": [],
      "stateMutability": "nonpayable",
      "type": "function"
    },
    {
      "inputs": [
        {
          "internalType": "uint256",
          "name": "_newMinimumSupply",
          "type": "uint256"
        }
      ],
      "name": "minimumSupplyUpdate",
      "outputs": [],
      "stateMutability": "nonpayable",
      "type": "function"
    },
    {
      "inputs": [
        {
          "internalType": "address",
          "name": "_newDisPool",
          "type": "address"
        }
      ],
      "name": "disPoolUpdate",
      "outputs": [],
      "stateMutability": "nonpayable",
      "type": "function"
    },
    {
      "inputs": [
        {
          "internalType": "uint256",
          "name": "_newDisPercent",
          "type": "uint256"
        }
      ],
      "name": "disPercentUpdate",
      "outputs": [],
      "stateMutability": "nonpayable",
      "type": "function"
    },
    {
      "inputs": [
        {
          "internalType": "uint256",
          "name": "_newTaxReductionDuration",
          "type": "uint256"
        }
      ],
      "name": "taxReductionDurationUpdate",
      "outputs": [],
      "stateMutability": "nonpayable",
      "type": "function"
    },
    {
      "inputs": [
        {
          "internalType": "uint256",
          "name": "_newDynamicTaxReduction",
          "type": "uint256"
        }
      ],
      "name": "dynamicTaxReductionUpdate",
      "outputs": [],
      "stateMutability": "nonpayable",
      "type": "function"
    },
    {
      "inputs": [
        {
          "internalType": "address",
          "name": "newWhitelist",
          "type": "address"
        }
      ],
      "name": "setWhitelistedTo",
      "outputs": [],
      "stateMutability": "nonpayable",
      "type": "function"
    },
    {
      "inputs": [
        {
          "internalType": "address",
          "name": "newWhitelist",
          "type": "address"
        }
      ],
      "name": "removeWhitelistedTo",
      "outputs": [],
      "stateMutability": "nonpayable",
      "type": "function"
    },
    {
      "inputs": [
        {
          "internalType": "address",
          "name": "newWhitelist",
          "type": "address"
        }
      ],
      "name": "setWhitelistedFrom",
      "outputs": [],
      "stateMutability": "nonpayable",
      "type": "function"
    },
    {
      "inputs": [
        {
          "internalType": "address",
          "name": "newWhitelist",
          "type": "address"
        }
      ],
      "name": "removeWhitelistedFrom",
      "outputs": [],
      "stateMutability": "nonpayable",
      "type": "function"
    },
    {
      "inputs": [],
      "name": "unlockedSupply",
      "outputs": [
        {
          "internalType": "uint256",
          "name": "",
          "type": "uint256"
        }
      ],
      "stateMutability": "view",
      "type": "function",
      "constant": true
    },
    {
      "inputs": [],
      "name": "lockedSupply",
      "outputs": [
        {
          "internalType": "uint256",
          "name": "",
          "type": "uint256"
        }
      ],
      "stateMutability": "view",
      "type": "function",
      "constant": true
    },
    {
      "inputs": [],
      "name": "circulatingSupply",
      "outputs": [
        {
          "internalType": "uint256",
          "name": "",
          "type": "uint256"
        }
      ],
      "stateMutability": "view",
      "type": "function",
      "constant": true
    },
    {
      "inputs": [],
      "name": "totalLock",
      "outputs": [
        {
          "internalType": "uint256",
          "name": "",
          "type": "uint256"
        }
      ],
      "stateMutability": "view",
      "type": "function",
      "constant": true
    },
    {
      "inputs": [
        {
          "internalType": "address",
          "name": "_to",
          "type": "address"
        },
        {
          "internalType": "uint256",
          "name": "_amount",
          "type": "uint256"
        }
      ],
      "name": "mint",
      "outputs": [],
      "stateMutability": "nonpayable",
      "type": "function"
    },
    {
      "inputs": [
        {
          "internalType": "address",
          "name": "_to",
          "type": "address"
        },
        {
          "internalType": "uint256",
          "name": "_amount",
          "type": "uint256"
        }
      ],
      "name": "manualMint",
      "outputs": [],
      "stateMutability": "nonpayable",
      "type": "function"
    },
    {
      "inputs": [
        {
          "internalType": "address",
          "name": "to",
          "type": "address"
        },
        {
          "internalType": "uint256",
          "name": "amount",
          "type": "uint256"
        }
      ],
      "name": "transfer",
      "outputs": [
        {
          "internalType": "bool",
          "name": "",
          "type": "bool"
        }
      ],
      "stateMutability": "nonpayable",
      "type": "function"
    },
    {
      "inputs": [
        {
          "internalType": "address",
          "name": "from",
          "type": "address"
        },
        {
          "internalType": "address",
          "name": "to",
          "type": "address"
        },
        {
          "internalType": "uint256",
          "name": "amount",
          "type": "uint256"
        }
      ],
      "name": "transferFrom",
      "outputs": [
        {
          "internalType": "bool",
          "name": "",
          "type": "bool"
        }
      ],
      "stateMutability": "nonpayable",
      "type": "function"
    },
    {
      "inputs": [
        {
          "internalType": "address",
          "name": "_holder",
          "type": "address"
        }
      ],
      "name": "totalBalanceOf",
      "outputs": [
        {
          "internalType": "uint256",
          "name": "",
          "type": "uint256"
        }
      ],
      "stateMutability": "view",
      "type": "function",
      "constant": true
    },
    {
      "inputs": [
        {
          "internalType": "address",
          "name": "_holder",
          "type": "address"
        }
      ],
      "name": "lockOf",
      "outputs": [
        {
          "internalType": "uint256",
          "name": "",
          "type": "uint256"
        }
      ],
      "stateMutability": "view",
      "type": "function",
      "constant": true
    },
    {
      "inputs": [
        {
          "internalType": "address",
          "name": "_holder",
          "type": "address"
        }
      ],
      "name": "lastUnlockBlock",
      "outputs": [
        {
          "internalType": "uint256",
          "name": "",
          "type": "uint256"
        }
      ],
      "stateMutability": "view",
      "type": "function",
      "constant": true
    },
    {
      "inputs": [
        {
          "internalType": "address",
          "name": "_holder",
          "type": "address"
        },
        {
          "internalType": "uint256",
          "name": "_amount",
          "type": "uint256"
        }
      ],
      "name": "lock",
      "outputs": [],
      "stateMutability": "nonpayable",
      "type": "function"
    },
    {
      "inputs": [
        {
          "internalType": "address",
          "name": "_holder",
          "type": "address"
        }
      ],
      "name": "canUnlockAmount",
      "outputs": [
        {
          "internalType": "uint256",
          "name": "",
          "type": "uint256"
        }
      ],
      "stateMutability": "view",
      "type": "function",
      "constant": true
    },
    {
      "inputs": [],
      "name": "unlock",
      "outputs": [],
      "stateMutability": "nonpayable",
      "type": "function"
    },
    {
      "inputs": [
        {
          "internalType": "address",
          "name": "_to",
          "type": "address"
        }
      ],
      "name": "transferAll",
      "outputs": [],
      "stateMutability": "nonpayable",
      "type": "function"
    },
    {
      "inputs": [
        {
          "internalType": "address",
          "name": "delegator",
          "type": "address"
        }
      ],
      "name": "delegates",
      "outputs": [
        {
          "internalType": "address",
          "name": "",
          "type": "address"
        }
      ],
      "stateMutability": "view",
      "type": "function",
      "constant": true
    },
    {
      "inputs": [
        {
          "internalType": "address",
          "name": "delegatee",
          "type": "address"
        }
      ],
      "name": "delegate",
      "outputs": [],
      "stateMutability": "nonpayable",
      "type": "function"
    },
    {
      "inputs": [
        {
          "internalType": "address",
          "name": "delegatee",
          "type": "address"
        },
        {
          "internalType": "uint256",
          "name": "nonce",
          "type": "uint256"
        },
        {
          "internalType": "uint256",
          "name": "expiry",
          "type": "uint256"
        },
        {
          "internalType": "uint8",
          "name": "v",
          "type": "uint8"
        },
        {
          "internalType": "bytes32",
          "name": "r",
          "type": "bytes32"
        },
        {
          "internalType": "bytes32",
          "name": "s",
          "type": "bytes32"
        }
      ],
      "name": "delegateBySig",
      "outputs": [],
      "stateMutability": "nonpayable",
      "type": "function"
    },
    {
      "inputs": [
        {
          "internalType": "address",
          "name": "account",
          "type": "address"
        }
      ],
      "name": "getCurrentVotes",
      "outputs": [
        {
          "internalType": "uint256",
          "name": "",
          "type": "uint256"
        }
      ],
      "stateMutability": "view",
      "type": "function",
      "constant": true
    },
    {
      "inputs": [
        {
          "internalType": "address",
          "name": "account",
          "type": "address"
        },
        {
          "internalType": "uint256",
          "name": "blockNumber",
          "type": "uint256"
        }
      ],
      "name": "getPriorVotes",
      "outputs": [
        {
          "internalType": "uint256",
          "name": "",
          "type": "uint256"
        }
      ],
      "stateMutability": "view",
      "type": "function",
      "constant": true
    }
  ],
  "bytecode": "0x60806040526b033b2e3c9fd0803ce80000006008556b019d971e4fe8401e74000000600c556000600d5569d3c21bcecceda1000000600e553480156200004457600080fd5b506040516200333838038062003338833981016040819052620000679162000225565b60408051808201825260098152682130bb30aa37b5b2b760b91b6020808301918252835180850190945260048452634241564160e01b908401528151919291620000b4916003916200017f565b508051620000ca9060049060208401906200017f565b50506005805460ff19166012179055506000620000e43390565b60058054610100600160a81b0319166101006001600160a01b03841690810291909117909155604051919250906000907f8be0079c531659141344cd1fd0a4f28419497f9722a3daafe3b4186f6b6457e0908290a350600a958655600b94909455600f80546001600160a01b0319166001600160a01b03949094169390931790925560105560115560125562093a80601355601455620002c6565b8280546200018d9062000289565b90600052602060002090601f016020900481019282620001b15760008555620001fc565b82601f10620001cc57805160ff1916838001178555620001fc565b82800160010185558215620001fc579182015b82811115620001fc578251825591602001919060010190620001df565b506200020a9291506200020e565b5090565b5b808211156200020a57600081556001016200020f565b60008060008060008060c087890312156200023f57600080fd5b86516020880151604089015191975095506001600160a01b03811681146200026657600080fd5b80945050606087015192506080870151915060a087015190509295509295509295565b600181811c908216806200029e57607f821691505b60208210811415620002c057634e487b7160e01b600052602260045260246000fd5b50919050565b61306280620002d66000396000f3fe608060405234801561001057600080fd5b50600436106104125760003560e01c80637ede036d11610220578063c3cda52011610130578063e6b2fb4a116100b8578063f1127ed811610087578063f1127ed814610972578063f2fde38b146109c9578063f7567244146109dc578063f85b84a4146109ef578063fd3d27b8146109f857600080fd5b8063e6b2fb4a1461091c578063e7a324dc14610925578063e7c5372c1461094c578063f0f8f3561461095f57600080fd5b8063ca5c7b91116100ff578063ca5c7b91146108a2578063cf1c316a146108aa578063dd62ed3e146108bd578063e2657da1146108f6578063e4c5ff461461090957600080fd5b8063c3cda52014610850578063c6ef924614610863578063c7c8db3e1461086c578063ca04d2d81461087f57600080fd5b8063a00c9503116101b3578063a9059cbb11610182578063a9059cbb146107e1578063a90fa603146107f4578063b4b5ea5714610807578063b91816111461081a578063c38533c61461083d57600080fd5b8063a00c9503146107aa578063a3a7e7f3146107b3578063a457c2d7146107c6578063a69df4b5146107d957600080fd5b80638da5cb5b116101ef5780638da5cb5b1461077b5780638e875e1a146107915780639358928b1461079a57806395d89b41146107a257600080fd5b80637ede036d1461072357806384036fb91461072c57806389a2867c1461073f5780638cdbcdc61461076857600080fd5b80633b6b8183116103265780635b014029116102ae5780636fcfff451161027d5780636fcfff451461069a57806370a08231146106d5578063715018a6146106e8578063782d6fe1146106f05780637ecebe001461070357600080fd5b80635b0140291461064a5780635c19a95c1461066d57806366fc237b14610680578063674f220f1461068957600080fd5b80634b0ee02a116102f55780634b0ee02a146105bc5780634b30c23e146105cf5780634d28b4ba146105e2578063587cde1e146105f55780635a46d3b51461062157600080fd5b80633b6b81831461057057806340346c491461058357806340c10f1914610596578063485d7d94146105a957600080fd5b806320606b70116103a9578063313ce56711610378578063313ce56714610525578063355274ea1461053a5780633838d4e31461054257806339509351146105555780633a1aae351461056857600080fd5b806320606b70146104ad57806323b872dd146104d457806327ba6e11146104e7578063282d3fdf1461051257600080fd5b806318160ddd116103e557806318160ddd1461048057806318325c3a146104885780631995600114610491578063202b17601461049a57600080fd5b806303807ee51461041757806306fdde0314610433578063095ea7b3146104485780630cb285e21461046b575b600080fd5b61042060105481565b6040519081526020015b60405180910390f35b61043b610a00565b60405161042a9190612d85565b61045b610456366004612ca2565b610a92565b604051901515815260200161042a565b61047e610479366004612d6c565b610aa9565b005b600254610420565b61042060125481565b61042060135481565b6104206104a8366004612c18565b610ae5565b6104207f8cad95687ba82c2ce50e74f7b754645e5117c3a5bec8151c0726d5857980a86681565b61045b6104e2366004612c66565b610bac565b600f546104fa906001600160a01b031681565b6040516001600160a01b03909116815260200161042a565b61047e610520366004612ca2565b610c14565b60055460405160ff909116815260200161042a565b600854610420565b61047e610550366004612c18565b610dda565b61045b610563366004612ca2565b610e94565b600954610420565b61047e61057e366004612d6c565b610ecf565b61047e610591366004612d6c565b610f0b565b61047e6105a4366004612ca2565b610f47565b61047e6105b7366004612c18565b610faa565b6104206105ca366004612c18565b611011565b61047e6105dd366004612c18565b61103f565b61047e6105f0366004612c18565b611098565b6104fa610603366004612c18565b6001600160a01b039081166000908152601960205260409020541690565b61042061062f366004612c18565b6001600160a01b031660009081526015602052604090205490565b61045b610658366004612c18565b60176020526000908152604090205460ff1681565b61047e61067b366004612c18565b611152565b610420600a5481565b6006546001600160a01b03166104fa565b6106c06106a8366004612c18565b601b6020526000908152604090205463ffffffff1681565b60405163ffffffff909116815260200161042a565b6104206106e3366004612c18565b61115f565b61047e61117a565b6104206106fe366004612ca2565b6111fa565b610420610711366004612c18565b601c6020526000908152604090205481565b610420600e5481565b61047e61073a366004612d6c565b61145f565b61042061074d366004612c18565b6001600160a01b031660009081526016602052604090205490565b61047e610776366004612d6c565b61149b565b60055461010090046001600160a01b03166104fa565b610420600b5481565b6104206114d7565b61043b6114e7565b61042060145481565b61047e6107c1366004612c18565b6114f6565b61045b6107d4366004612ca2565b6115e5565b61047e611634565b61045b6107ef366004612ca2565b611708565b61047e610802366004612c18565b61171d565b610420610815366004612c18565b61185f565b61045b610828366004612c18565b60076020526000908152604090205460ff1681565b61047e61084b366004612d6c565b6118d3565b61047e61085e366004612ccc565b61190f565b61042060115481565b61047e61087a366004612d6c565b611bdd565b61045b61088d366004612c18565b60186020526000908152604090205460ff1681565b610420611c19565b61047e6108b8366004612c18565b611c24565b6104206108cb366004612c33565b6001600160a01b03918216600090815260016020908152604080832093909416825291909152205490565b61047e610904366004612c18565b611c78565b61047e610917366004612ca2565b611d32565b610420600d5481565b6104207fe48329057bfd03d55e49b547132e39cffd9c1820ad7b9d4c5307691425d15adf81565b61047e61095a366004612d6c565b611db9565b61047e61096d366004612d6c565b611df5565b6109ad610980366004612d2c565b601a6020908152600092835260408084209091529082529020805460019091015463ffffffff9091169082565b6040805163ffffffff909316835260208301919091520161042a565b61047e6109d7366004612c18565b611e31565b61047e6109ea366004612c18565b611ec6565b610420600c5481565b610420611f80565b606060038054610a0f90612ee1565b80601f0160208091040260200160405190810160405280929190818152602001828054610a3b90612ee1565b8015610a885780601f10610a5d57610100808354040283529160200191610a88565b820191906000526020600020905b815481529060010190602001808311610a6b57829003601f168201915b5050505050905090565b6000610a9f338484611f98565b5060015b92915050565b3360009081526007602052604090205460ff1680610ad757506005546001600160a01b036101009091041633145b610ae057600080fd5b600b55565b6000600a54431015610af957506000919050565b600b544310610b1e57506001600160a01b031660009081526015602052604090205490565b6001600160a01b038216600090815260166020526040812054610b419043612ea5565b6001600160a01b038416600090815260166020526040812054600b549293509091610b6c9190612ea5565b6001600160a01b0385166000908152601560205260409020549091508190610b95908490612e86565b610b9f9190612e4f565b949350505050565b919050565b6001600160a01b03821660009081526017602052604081205460ff1680610be257503360009081526018602052604090205460ff165b15610bf957610bf28484846120bd565b9050610c0d565b610bf28484610c088533612121565b6120bd565b9392505050565b6005546001600160a01b03610100909104163314610c4d5760405162461bcd60e51b8152600401610c4490612dda565b60405180910390fd5b6001600160a01b038216610ca35760405162461bcd60e51b815260206004820152601f60248201527f45524332303a206c6f636b20746f20746865207a65726f2061646472657373006044820152606401610c44565b610cac8261115f565b811115610cfb5760405162461bcd60e51b815260206004820152601e60248201527f45524332303a206c6f636b20616d6f756e74206f76657220626c616e636500006044820152606401610c44565b610d068230836121ba565b6001600160a01b038216600090815260156020526040902054610d2a908290612e0f565b6001600160a01b038316600090815260156020526040902055600954610d51908290612e0f565b600955600a546001600160a01b0383166000908152601660205260409020541015610d9357600a546001600160a01b0383166000908152601660205260409020555b816001600160a01b03167f625fed9875dada8643f2418b838ae0bc78d9a148a18eee4ee1979ff0f3f5d42782604051610dce91815260200190565b60405180910390a25050565b3360009081526007602052604090205460ff1680610e0857506005546001600160a01b036101009091041633145b610e1157600080fd5b6001600160a01b03811660009081526018602052604090205460ff1615610e705760405162461bcd60e51b815260206004820152601360248201527277686974656c6973746564204164647265737360681b6044820152606401610c44565b6001600160a01b03166000908152601860205260409020805460ff19166001179055565b3360008181526001602090815260408083206001600160a01b03871684529091528120549091610a9f918590610eca90866121fc565b611f98565b3360009081526007602052604090205460ff1680610efd57506005546001600160a01b036101009091041633145b610f0657600080fd5b601455565b3360009081526007602052604090205460ff1680610f3957506005546001600160a01b036101009091041633145b610f4257600080fd5b600855565b6005546001600160a01b03610100909104163314610f775760405162461bcd60e51b8152600401610c4490612dda565b610f81828261225b565b6001600160a01b03808316600090815260196020526040812054610fa6921683612346565b5050565b6005546001600160a01b03610100909104163314610fda5760405162461bcd60e51b8152600401610c4490612dda565b6001600160a01b038116331415610ff057600080fd5b6001600160a01b03166000908152600760205260409020805460ff19169055565b600061101c8261115f565b6001600160a01b038316600090815260156020526040902054610aa39190612e0f565b3360009081526007602052604090205460ff168061106d57506005546001600160a01b036101009091041633145b61107657600080fd5b600f80546001600160a01b0319166001600160a01b0392909216919091179055565b3360009081526007602052604090205460ff16806110c657506005546001600160a01b036101009091041633145b6110cf57600080fd5b6001600160a01b03811660009081526018602052604090205460ff166111315760405162461bcd60e51b81526020600482015260176024820152764e6f6e2077686974656c6973746564204164647265737360481b6044820152606401610c44565b6001600160a01b03166000908152601860205260409020805460ff19169055565b61115c33826124a5565b50565b6001600160a01b031660009081526020819052604090205490565b6005546001600160a01b036101009091041633146111aa5760405162461bcd60e51b8152600401610c4490612dda565b60055460405160009161010090046001600160a01b0316907f8be0079c531659141344cd1fd0a4f28419497f9722a3daafe3b4186f6b6457e0908390a360058054610100600160a81b0319169055565b600043821061125b5760405162461bcd60e51b815260206004820152602760248201527f424156413a3a6765745072696f72566f7465733a206e6f742079657420646574604482015266195c9b5a5b995960ca1b6064820152608401610c44565b6001600160a01b0383166000908152601b602052604090205463ffffffff1680611289576000915050610aa3565b6001600160a01b0384166000908152601a6020526040812084916112ae600185612ebc565b63ffffffff90811682526020820192909252604001600020541611611317576001600160a01b0384166000908152601a60205260408120906112f1600184612ebc565b63ffffffff1663ffffffff16815260200190815260200160002060010154915050610aa3565b6001600160a01b0384166000908152601a6020908152604080832083805290915290205463ffffffff16831015611352576000915050610aa3565b600080611360600184612ebc565b90505b8163ffffffff168163ffffffff16111561142857600060026113858484612ebc565b61138f9190612e63565b6113999083612ebc565b6001600160a01b0388166000908152601a6020908152604080832063ffffffff80861685529083529281902081518083019092528054909316808252600190930154918101919091529192508714156113fc57602001519450610aa39350505050565b805163ffffffff1687111561141357819350611421565b61141e600183612ebc565b92505b5050611363565b506001600160a01b0385166000908152601a6020908152604080832063ffffffff9094168352929052206001015491505092915050565b3360009081526007602052604090205460ff168061148d57506005546001600160a01b036101009091041633145b61149657600080fd5b601255565b3360009081526007602052604090205460ff16806114c957506005546001600160a01b036101009091041633145b6114d257600080fd5b601155565b60006114e260025490565b905090565b606060048054610a0f90612ee1565b33600090815260156020526040808220546001600160a01b03841683529120546115209190612e0f565b6001600160a01b038216600090815260156020908152604080832093909355600a54601690915291902054101561156e57600a546001600160a01b0382166000908152601660205260409020555b33600090815260166020526040808220546001600160a01b038416835291205410156115b55733600090815260166020526040808220546001600160a01b03841683529120555b336000818152601560209081526040808320839055601690915281205561115c90826115e08261115f565b6121ba565b6000610a9f3384610eca85604051806060016040528060258152602001613008602591393360009081526001602090815260408083206001600160a01b038d168452909152902054919061253a565b336000908152601560205260409020546116875760405162461bcd60e51b815260206004820152601460248201527345524332303a2063616e6e6f7420756e6c6f636b60601b6044820152606401610c44565b600061169233610ae5565b905061169d3061115f565b8111156116b0576116ad3061115f565b90505b6116bb3033836121ba565b336000908152601560205260409020546116d6908290612ea5565b336000908152601560209081526040808320939093556016905220439055600954611702908290612ea5565b60095550565b6000610c0d836117188433612121565b612574565b6006546001600160a01b031633146117895760405162461bcd60e51b815260206004820152602960248201527f4f776e61626c653a2063616c6c6572206973206e6f742074686520707265766960448201526837bab99037bbb732b960b91b6064820152608401610c44565b6006546001600160a01b038281169116146117f85760405162461bcd60e51b815260206004820152602960248201527f4f776e61626c653a206e6577206f776e6572206d75737420626520707265766960448201526837bab99037bbb732b960b91b6064820152608401610c44565b6005546040516001600160a01b0380841692610100900416907f8be0079c531659141344cd1fd0a4f28419497f9722a3daafe3b4186f6b6457e090600090a3600580546001600160a01b0390921661010002610100600160a81b0319909216919091179055565b6001600160a01b0381166000908152601b602052604081205463ffffffff168061188a576000610c0d565b6001600160a01b0383166000908152601a60205260408120906118ae600184612ebc565b63ffffffff1663ffffffff168152602001908152602001600020600101549392505050565b3360009081526007602052604090205460ff168061190157506005546001600160a01b036101009091041633145b61190a57600080fd5b600a55565b60007f8cad95687ba82c2ce50e74f7b754645e5117c3a5bec8151c0726d5857980a86661193a610a00565b805190602001206119484690565b60408051602080820195909552808201939093526060830191909152306080808401919091528151808403909101815260a0830182528051908401207fe48329057bfd03d55e49b547132e39cffd9c1820ad7b9d4c5307691425d15adf60c08401526001600160a01b038b1660e084015261010083018a90526101208084018a90528251808503909101815261014084019092528151919093012061190160f01b610160830152610162820183905261018282018190529192506000906101a20160408051601f198184030181528282528051602091820120600080855291840180845281905260ff8a169284019290925260608301889052608083018790529092509060019060a0016020604051602081039080840390855afa158015611a74573d6000803e3d6000fd5b5050604051601f1901519150506001600160a01b038116611ae65760405162461bcd60e51b815260206004820152602660248201527f424156413a3a64656c656761746542795369673a20696e76616c6964207369676044820152656e617475726560d01b6064820152608401610c44565b6001600160a01b0381166000908152601c60205260408120805491611b0a83612f1c565b919050558914611b675760405162461bcd60e51b815260206004820152602260248201527f424156413a3a64656c656761746542795369673a20696e76616c6964206e6f6e604482015261636560f01b6064820152608401610c44565b87421115611bc65760405162461bcd60e51b815260206004820152602660248201527f424156413a3a64656c656761746542795369673a207369676e617475726520656044820152651e1c1a5c995960d21b6064820152608401610c44565b611bd0818b6124a5565b505050505b505050505050565b3360009081526007602052604090205460ff1680611c0b57506005546001600160a01b036101009091041633145b611c1457600080fd5b601055565b60006114e260095490565b6005546001600160a01b03610100909104163314611c545760405162461bcd60e51b8152600401610c4490612dda565b6001600160a01b03166000908152600760205260409020805460ff19166001179055565b3360009081526007602052604090205460ff1680611ca657506005546001600160a01b036101009091041633145b611caf57600080fd5b6001600160a01b03811660009081526017602052604090205460ff16611d115760405162461bcd60e51b81526020600482015260176024820152764e6f6e2077686974656c6973746564204164647265737360481b6044820152606401610c44565b6001600160a01b03166000908152601760205260409020805460ff19169055565b3360009081526007602052604090205460ff1680611d6057506005546001600160a01b036101009091041633145b611d6957600080fd5b600c54600d541015610fa657611d7f828261225b565b6001600160a01b03808316600090815260196020526040812054611da4921683612346565b80600d54611db29190612e0f565b600d555050565b3360009081526007602052604090205460ff1680611de757506005546001600160a01b036101009091041633145b611df057600080fd5b600e55565b3360009081526007602052604090205460ff1680611e2357506005546001600160a01b036101009091041633145b611e2c57600080fd5b601355565b6005546001600160a01b03610100909104163314611e615760405162461bcd60e51b8152600401610c4490612dda565b6001600160a01b0381166117f85760405162461bcd60e51b815260206004820152602660248201527f4f776e61626c653a206e6577206f776e657220697320746865207a65726f206160448201526564647265737360d01b6064820152608401610c44565b3360009081526007602052604090205460ff1680611ef457506005546001600160a01b036101009091041633145b611efd57600080fd5b6001600160a01b03811660009081526017602052604090205460ff1615611f5c5760405162461bcd60e51b815260206004820152601360248201527277686974656c6973746564204164647265737360681b6044820152606401610c44565b6001600160a01b03166000908152601760205260409020805460ff19166001179055565b6000600954611f8e60025490565b6114e29190612ea5565b6001600160a01b038316611ffa5760405162461bcd60e51b8152602060048201526024808201527f45524332303a20617070726f76652066726f6d20746865207a65726f206164646044820152637265737360e01b6064820152608401610c44565b6001600160a01b03821661205b5760405162461bcd60e51b815260206004820152602260248201527f45524332303a20617070726f766520746f20746865207a65726f206164647265604482015261737360f01b6064820152608401610c44565b6001600160a01b0383811660008181526001602090815260408083209487168084529482529182902085905590518481527f8c5be1e5ebec7d5bd14f71427d1e84f3dd0314c0f7b2291e5b200ac8c7c3b92591015b60405180910390a3505050565b60006120ca8484846121ba565b6121178433610eca85604051806060016040528060288152602001612fe0602891396001600160a01b038a166000908152600160209081526040808320338452909152902054919061253a565b5060019392505050565b600080808061212f86612581565b909250905061213e85836126dc565b600f546121569086906001600160a01b0316836121ba565b806121618388612ea5565b61216b9190612ea5565b9250846001600160a01b03167fcc16f5dbb4873280815c1ee09dbd06736cffcc184412cf7a71a0fdb75d397ca5836040516121a891815260200190565b60405180910390a25090949350505050565b6121c58383836127ec565b6001600160a01b038084166000908152601960205260408082205485841683529120546121f792918216911683612346565b505050565b6000806122098385612e0f565b905083811015610c0d5760405162461bcd60e51b815260206004820152601b60248201527f536166654d6174683a206164646974696f6e206f766572666c6f7700000000006044820152606401610c44565b6001600160a01b0382166122b15760405162461bcd60e51b815260206004820152601f60248201527f45524332303a206d696e7420746f20746865207a65726f2061646472657373006044820152606401610c44565b6122bd6000838361297a565b6002546122ca90826121fc565b6002556001600160a01b0382166000908152602081905260409020546122f090826121fc565b6001600160a01b038316600081815260208181526040808320949094559251848152919290917fddf252ad1be2c89b69c2b068fc378daa952ba7f163c4a11628f55a4df523b3ef91015b60405180910390a35050565b816001600160a01b0316836001600160a01b0316141580156123685750600081115b156121f7576001600160a01b0383161561240b576001600160a01b0383166000908152601b602052604081205463ffffffff1690816123a85760006123eb565b6001600160a01b0385166000908152601a60205260408120906123cc600185612ebc565b63ffffffff1663ffffffff168152602001908152602001600020600101545b905060006123f98483612ea5565b9050612407868484846129ed565b5050505b6001600160a01b038216156121f7576001600160a01b0382166000908152601b602052604081205463ffffffff169081612446576000612489565b6001600160a01b0384166000908152601a602052604081209061246a600185612ebc565b63ffffffff1663ffffffff168152602001908152602001600020600101545b905060006124978483612e0f565b9050611bd5858484846129ed565b6001600160a01b03808316600090815260196020526040812054909116906124cc8461115f565b6001600160a01b0385811660008181526019602052604080822080546001600160a01b031916898616908117909155905194955093928616927f3134e8a2e6d97e929a7e54011ea5485d7d196dd5f0ba4d4ef95803e8e3fc257f9190a4612534828483612346565b50505050565b6000818484111561255e5760405162461bcd60e51b8152600401610c449190612d85565b50600061256b8486612ea5565b95945050505050565b6000610a9f3384846121ba565b600080600080600e5461259360025490565b11156126d25760125442101561260957612710601054866125b49190612e86565b6125be9190612e4f565b9150612710601154866125d19190612e86565b6125db9190612e4f565b90506000600e546125eb60025490565b6125f59190612ea5565b905080831115612603578092505b506126d2565b60006014546013546012544261261f9190612ea5565b6126299190612e4f565b6126339190612e86565b90506010548110612647576000925061266f565b612710816010546126589190612ea5565b6126629088612e86565b61266c9190612e4f565b92505b601054811061268157600091506126a9565b612710816011546126929190612ea5565b61269c9088612e86565b6126a69190612e4f565b91505b6000600e546126b760025490565b6126c19190612ea5565b9050808411156126cf578093505b50505b9094909350915050565b6001600160a01b03821661273c5760405162461bcd60e51b815260206004820152602160248201527f45524332303a206275726e2066726f6d20746865207a65726f206164647265736044820152607360f81b6064820152608401610c44565b6127488260008361297a565b61278581604051806060016040528060228152602001612f64602291396001600160a01b038516600090815260208190526040902054919061253a565b6001600160a01b0383166000908152602081905260409020556002546127ab9082612b8f565b6002556040518181526000906001600160a01b038416907fddf252ad1be2c89b69c2b068fc378daa952ba7f163c4a11628f55a4df523b3ef9060200161233a565b6001600160a01b0383166128505760405162461bcd60e51b815260206004820152602560248201527f45524332303a207472616e736665722066726f6d20746865207a65726f206164604482015264647265737360d81b6064820152608401610c44565b6001600160a01b0382166128b25760405162461bcd60e51b815260206004820152602360248201527f45524332303a207472616e7366657220746f20746865207a65726f206164647260448201526265737360e81b6064820152608401610c44565b6128bd83838361297a565b6128fa81604051806060016040528060268152602001612f86602691396001600160a01b038616600090815260208190526040902054919061253a565b6001600160a01b03808516600090815260208190526040808220939093559084168152205461292990826121fc565b6001600160a01b038381166000818152602081815260409182902094909455518481529092918616917fddf252ad1be2c89b69c2b068fc378daa952ba7f163c4a11628f55a4df523b3ef91016120b0565b6001600160a01b0383166121f7576008548161299560025490565b61299f9190612e0f565b11156121f75760405162461bcd60e51b815260206004820152601960248201527f45524332304361707065643a20636170206578636565646564000000000000006044820152606401610c44565b6000612a1143604051806060016040528060348152602001612fac60349139612bd1565b905060008463ffffffff16118015612a6b57506001600160a01b0385166000908152601a6020526040812063ffffffff831691612a4f600188612ebc565b63ffffffff908116825260208201929092526040016000205416145b15612ab4576001600160a01b0385166000908152601a602052604081208391612a95600188612ebc565b63ffffffff168152602081019190915260400160002060010155612b44565b60408051808201825263ffffffff838116825260208083018681526001600160a01b038a166000908152601a83528581208a851682529092529390209151825463ffffffff191691161781559051600191820155612b13908590612e27565b6001600160a01b0386166000908152601b60205260409020805463ffffffff191663ffffffff929092169190911790555b60408051848152602081018490526001600160a01b038716917fdec2bacdd2f05b59de34da9b523dff8be42e5e38e818c82fdb0bae774387a724910160405180910390a25050505050565b6000610c0d83836040518060400160405280601e81526020017f536166654d6174683a207375627472616374696f6e206f766572666c6f77000081525061253a565b6000816401000000008410612bf95760405162461bcd60e51b8152600401610c449190612d85565b509192915050565b80356001600160a01b0381168114610ba757600080fd5b600060208284031215612c2a57600080fd5b610c0d82612c01565b60008060408385031215612c4657600080fd5b612c4f83612c01565b9150612c5d60208401612c01565b90509250929050565b600080600060608486031215612c7b57600080fd5b612c8484612c01565b9250612c9260208501612c01565b9150604084013590509250925092565b60008060408385031215612cb557600080fd5b612cbe83612c01565b946020939093013593505050565b60008060008060008060c08789031215612ce557600080fd5b612cee87612c01565b95506020870135945060408701359350606087013560ff81168114612d1257600080fd5b9598949750929560808101359460a0909101359350915050565b60008060408385031215612d3f57600080fd5b612d4883612c01565b9150602083013563ffffffff81168114612d6157600080fd5b809150509250929050565b600060208284031215612d7e57600080fd5b5035919050565b600060208083528351808285015260005b81811015612db257858101830151858201604001528201612d96565b81811115612dc4576000604083870101525b50601f01601f1916929092016040019392505050565b6020808252818101527f4f776e61626c653a2063616c6c6572206973206e6f7420746865206f776e6572604082015260600190565b60008219821115612e2257612e22612f37565b500190565b600063ffffffff808316818516808303821115612e4657612e46612f37565b01949350505050565b600082612e5e57612e5e612f4d565b500490565b600063ffffffff80841680612e7a57612e7a612f4d565b92169190910492915050565b6000816000190483118215151615612ea057612ea0612f37565b500290565b600082821015612eb757612eb7612f37565b500390565b600063ffffffff83811690831681811015612ed957612ed9612f37565b039392505050565b600181811c90821680612ef557607f821691505b60208210811415612f1657634e487b7160e01b600052602260045260246000fd5b50919050565b6000600019821415612f3057612f30612f37565b5060010190565b634e487b7160e01b600052601160045260246000fd5b634e487b7160e01b600052601260045260246000fdfe45524332303a206275726e20616d6f756e7420657863656564732062616c616e636545524332303a207472616e7366657220616d6f756e7420657863656564732062616c616e6365424156413a3a5f7772697465436865636b706f696e743a20626c6f636b206e756d6265722065786365656473203332206269747345524332303a207472616e7366657220616d6f756e74206578636565647320616c6c6f77616e636545524332303a2064656372656173656420616c6c6f77616e63652062656c6f77207a65726fa2646970667358221220ef22d141ebe2c99e4c350a8d0c29c7b63c20abd5ac581eb04a12f9b7a127f74964736f6c63430008070033",
  "immutableReferences": {},
  "source": "// SPDX-License-Identifier: MIT\r\n\r\npragma solidity ^0.8.0;\r\n\r\nimport \"./Ownable.sol\";\r\nimport \"./ERC20.sol\";\r\n\r\n// BAVAToken with Governance.\r\ncontract BavaToken is ERC20(\"BavaToken\", \"BAVA\"), Ownable, Authorizable {\r\n    uint256 private _cap = 1000000000e18;     // 1 billion tokens\r\n    uint256 private _totalLock;\r\n\r\n    uint256 public lockFromBlock;\r\n    uint256 public lockToBlock;\r\n    uint256 public manualMintLimit = 500000000e18;   // 1 thousand tokens\r\n    uint256 public manualMinted = 0;\r\n    uint256 public minimumSupply = 1000000e18;      // 1 million tokens\r\n    address public disPool;\r\n    uint256 public burnPercent;\r\n    uint256 public disPercent;\r\n    uint256 public taxStartDate;\r\n    uint256 public taxReductionDuration;\r\n    uint256 public dynamicTaxReduction;\r\n\r\n    mapping(address => uint256) private _locks;\r\n    mapping(address => uint256) private _lastUnlockBlock;\r\n    mapping(address => bool) public isWhitelistedTo;\r\n    mapping(address => bool) public isWhitelistedFrom;\r\n\r\n    event Lock(address indexed to, uint256 value);\r\n    event Burn(address indexed _from, uint256 _value);\r\n\r\n    constructor(uint256 _lockFromBlock, uint256 _lockToBlock, address _disPool, uint256 _burnPercent, uint256 _disPercent, uint256 _taxStartDate) {\r\n        lockFromBlock = _lockFromBlock;\r\n        lockToBlock = _lockToBlock;\r\n        disPool = _disPool;\r\n        burnPercent = _burnPercent;\r\n        disPercent = _disPercent;\r\n        taxStartDate = _taxStartDate;\r\n        taxReductionDuration = 604800;\r\n        dynamicTaxReduction = 10;\r\n    }\r\n\r\n    /**\r\n     * @dev Returns the cap on the token's total supply.\r\n     */\r\n    function cap() public view returns (uint256) {\r\n        return _cap;\r\n    }\r\n    \r\n    // Update the total cap - can go up or down but wont destroy prevoius tokens.\r\n    function capUpdate(uint256 _newCap) public onlyAuthorized {\r\n        _cap = _newCap;\r\n    }\r\n    \r\n     // Update the lockFromBlock\r\n    function lockFromUpdate(uint256 _newLockFrom) public onlyAuthorized {\r\n        lockFromBlock = _newLockFrom;\r\n    }\r\n    \r\n     // Update the lockToBlock\r\n    function lockToUpdate(uint256 _newLockTo) public onlyAuthorized {\r\n        lockToBlock = _newLockTo;\r\n    }\r\n\r\n    // Update the taxStartDate\r\n    function taxStartDateUpdate(uint256 _newTaxStartDate) public onlyAuthorized {\r\n        taxStartDate = _newTaxStartDate;\r\n    }\r\n\r\n    // Update the burnPercent\r\n    function burnPercentUpdate(uint256 _newBurnPercent) public onlyAuthorized {\r\n        burnPercent = _newBurnPercent;\r\n    }\r\n\r\n    // Update the disPercent\r\n    function minimumSupplyUpdate(uint256 _newMinimumSupply) public onlyAuthorized {\r\n        minimumSupply = _newMinimumSupply;\r\n    }\r\n\r\n    // Update the disPercent\r\n    function disPoolUpdate(address _newDisPool) public onlyAuthorized {\r\n        disPool = _newDisPool;\r\n    }\r\n\r\n    // Update the disPercent\r\n    function disPercentUpdate(uint256 _newDisPercent) public onlyAuthorized {\r\n        disPercent = _newDisPercent;\r\n    }\r\n\r\n    // Update the taxReductionDuration\r\n    function taxReductionDurationUpdate(uint256 _newTaxReductionDuration) public onlyAuthorized {\r\n        taxReductionDuration = _newTaxReductionDuration;\r\n    }\r\n\r\n    // Update the taxStartDate\r\n    function dynamicTaxReductionUpdate(uint256 _newDynamicTaxReduction) public onlyAuthorized {\r\n        dynamicTaxReduction = _newDynamicTaxReduction;\r\n    }  \r\n\r\n    function setWhitelistedTo(address newWhitelist) external onlyAuthorized {\r\n        require(!isWhitelistedTo[newWhitelist], \"whitelisted Address\");\r\n\r\n        isWhitelistedTo[newWhitelist] = true;\r\n    }\r\n\r\n    function removeWhitelistedTo(address newWhitelist) external onlyAuthorized {\r\n        require(isWhitelistedTo[newWhitelist], \"Non whitelisted Address\");\r\n\r\n        isWhitelistedTo[newWhitelist] = false;\r\n    }\r\n\r\n    function setWhitelistedFrom(address newWhitelist) external onlyAuthorized {\r\n        require(!isWhitelistedFrom[newWhitelist], \"whitelisted Address\");\r\n\r\n        isWhitelistedFrom[newWhitelist] = true;\r\n    }\r\n\r\n    function removeWhitelistedFrom(address newWhitelist) external onlyAuthorized {\r\n        require(isWhitelistedFrom[newWhitelist], \"Non whitelisted Address\");\r\n\r\n        isWhitelistedFrom[newWhitelist] = false;\r\n    } \r\n\r\n    function unlockedSupply() public view returns (uint256) {\r\n        return (totalSupply()-_totalLock);\r\n    }\r\n    \r\n    function lockedSupply() public view returns (uint256) {\r\n        return totalLock();\r\n    }\r\n    \r\n    function circulatingSupply() public view returns (uint256) {\r\n        return totalSupply();\r\n    }\r\n\r\n    function totalLock() public view returns (uint256) {\r\n        return _totalLock;\r\n    }\r\n\r\n    /**\r\n     * @dev See {ERC20-_beforeTokenTransfer}.\r\n     *\r\n     * Requirements:\r\n     *\r\n     * - minted tokens must not cause the total supply to go over the cap.\r\n     */\r\n    function _beforeTokenTransfer(address from, address to, uint256 amount) internal virtual override {\r\n        super._beforeTokenTransfer(from, to, amount);\r\n\r\n        if (from == address(0)) { // When minting tokens\r\n            require(totalSupply()+amount <= _cap, \"ERC20Capped: cap exceeded\");\r\n        }\r\n    }\r\n\r\n    /**\r\n     * @dev Moves tokens `amount` from `sender` to `recipient`.\r\n     *\r\n     * This is internal function is equivalent to {transfer}, and can be used to\r\n     * e.g. implement automatic token fees, slashing mechanisms, etc.\r\n     *\r\n     * Emits a {Transfer} event.\r\n     *\r\n     * Requirements:\r\n     *\r\n     * - `sender` cannot be the zero address.\r\n     * - `recipient` cannot be the zero address.\r\n     * - `sender` must have a balance of at least `amount`.\r\n     */\r\n    function _transfer(address sender, address recipient, uint256 amount) internal virtual override {\r\n        super._transfer(sender, recipient, amount);\r\n        _moveDelegates(_delegates[sender], _delegates[recipient], amount);\r\n    }\r\n\r\n    /// @notice Creates `_amount` token to `_to`. Must only be called by the owner (MasterChef).\r\n    function mint(address _to, uint256 _amount) public onlyOwner {\r\n        _mint(_to, _amount);\r\n        _moveDelegates(address(0), _delegates[_to], _amount);\r\n    }\r\n    \r\n    function manualMint(address _to, uint256 _amount) public onlyAuthorized {\r\n        if(manualMinted < manualMintLimit){\r\n            _mint(_to, _amount);\r\n            _moveDelegates(address(0), _delegates[_to], _amount);\r\n            manualMinted = manualMinted+(_amount);\r\n        }\r\n    }\r\n\r\n    function transfer(address to, uint256 amount) public override returns (bool) {\r\n        // if (isWhitelistedTo[to] || isWhitelistedFrom[msg.sender]) {\r\n        //     return super.transfer(to, amount);\r\n        // } else {\r\n            return super.transfer(to, _partialBurn(amount, msg.sender));\r\n        // }\r\n    }\r\n\r\n    function transferFrom(address from, address to, uint256 amount) public override returns (bool) {\r\n        if (isWhitelistedTo[to] || isWhitelistedFrom[msg.sender]) {\r\n            return super.transferFrom(from, to, amount);\r\n        } else {\r\n            return super.transferFrom(from, to, _partialBurn(amount, msg.sender));\r\n        }\r\n    }\r\n\r\n    function _partialBurn(uint256 _amount, address _from) internal returns (uint256) {\r\n        uint256 transferAmount = 0;\r\n        uint256 burnAmount;\r\n        uint256 disAmount;\r\n        (burnAmount, disAmount) = _calculateDeductAmount(_amount);\r\n\r\n        _burn(_from, burnAmount);\r\n        _transfer(_from, disPool, disAmount);\r\n        \r\n        transferAmount = _amount - burnAmount - disAmount;\r\n        emit Burn(_from, burnAmount);\r\n        return transferAmount; \r\n    }\r\n\r\n    function _calculateDeductAmount(uint256 _amount) internal view returns (uint256, uint256) {\r\n        uint256 burnAmount = 0;\r\n        uint256 disAmount = 0;\r\n\r\n        if (totalSupply() > minimumSupply) {\r\n            if (block.timestamp < taxStartDate) {\r\n                burnAmount = (_amount * burnPercent) / 10000;\r\n                disAmount = (_amount * disPercent) / 10000;\r\n                uint256 availableBurn = totalSupply() - minimumSupply;\r\n                if (burnAmount > availableBurn) {\r\n                    burnAmount = availableBurn;\r\n                }               \r\n            } else {\r\n                uint256 dynamicTaxReductionPercent = (block.timestamp - taxStartDate)/taxReductionDuration * dynamicTaxReduction;\r\n                if (dynamicTaxReductionPercent >= burnPercent) {\r\n                    burnAmount = 0;\r\n                } else {\r\n                    burnAmount = (_amount * (burnPercent - dynamicTaxReductionPercent)) / 10000;\r\n                }\r\n                if (dynamicTaxReductionPercent >= burnPercent) {\r\n                    disAmount = 0;\r\n                } else {\r\n                    disAmount = (_amount * (disPercent - dynamicTaxReductionPercent)) / 10000;\r\n                }\r\n\r\n                uint256 availableBurn = totalSupply() - minimumSupply;\r\n                if (burnAmount > availableBurn) {\r\n                    burnAmount = availableBurn;\r\n                } \r\n            }\r\n        }\r\n        return (burnAmount, disAmount);\r\n    }\r\n\r\n    function totalBalanceOf(address _holder) public view returns (uint256) {\r\n        return _locks[_holder]+(balanceOf(_holder));\r\n    }\r\n\r\n    function lockOf(address _holder) public view returns (uint256) {\r\n        return _locks[_holder];\r\n    }\r\n\r\n    function lastUnlockBlock(address _holder) public view returns (uint256) {\r\n        return _lastUnlockBlock[_holder];\r\n    }\r\n\r\n    function lock(address _holder, uint256 _amount) public onlyOwner {\r\n        require(_holder != address(0), \"ERC20: lock to the zero address\");\r\n        require(_amount <= balanceOf(_holder), \"ERC20: lock amount over blance\");\r\n\r\n        _transfer(_holder, address(this), _amount);\r\n\r\n        _locks[_holder] = _locks[_holder]+(_amount);\r\n        _totalLock = _totalLock+(_amount);\r\n        if (_lastUnlockBlock[_holder] < lockFromBlock) {\r\n            _lastUnlockBlock[_holder] = lockFromBlock;\r\n        }\r\n        emit Lock(_holder, _amount);\r\n    }\r\n\r\n    function canUnlockAmount(address _holder) public view returns (uint256) {\r\n        if (block.number < lockFromBlock) {\r\n            return 0;\r\n        }\r\n        else if (block.number >= lockToBlock) {\r\n            return _locks[_holder];\r\n        }\r\n        else {\r\n            uint256 releaseBlock = block.number-(_lastUnlockBlock[_holder]);\r\n            uint256 numberLockBlock = lockToBlock-(_lastUnlockBlock[_holder]);\r\n            return _locks[_holder]*(releaseBlock)/(numberLockBlock);\r\n        }\r\n    }\r\n\r\n    function unlock() public {\r\n        require(_locks[msg.sender] > 0, \"ERC20: cannot unlock\");\r\n        \r\n        uint256 amount = canUnlockAmount(msg.sender);\r\n        // just for sure\r\n        if (amount > balanceOf(address(this))) {\r\n            amount = balanceOf(address(this));\r\n        }\r\n        _transfer(address(this), msg.sender, amount);\r\n        _locks[msg.sender] = _locks[msg.sender]-(amount);\r\n        _lastUnlockBlock[msg.sender] = block.number;\r\n        _totalLock = _totalLock-(amount);\r\n    }\r\n\r\n    // This function is for dev address migrate all balance to a multi sig address\r\n    function transferAll(address _to) public {\r\n        _locks[_to] = _locks[_to]+(_locks[msg.sender]);\r\n\r\n        if (_lastUnlockBlock[_to] < lockFromBlock) {\r\n            _lastUnlockBlock[_to] = lockFromBlock;\r\n        }\r\n\r\n        if (_lastUnlockBlock[_to] < _lastUnlockBlock[msg.sender]) {\r\n            _lastUnlockBlock[_to] = _lastUnlockBlock[msg.sender];\r\n        }\r\n\r\n        _locks[msg.sender] = 0;\r\n        _lastUnlockBlock[msg.sender] = 0;\r\n\r\n        _transfer(msg.sender, _to, balanceOf(msg.sender));\r\n    }\r\n\r\n    // Copied and modified from YAM code:\r\n    // https://github.com/yam-finance/yam-protocol/blob/master/contracts/token/YAMGovernanceStorage.sol\r\n    // https://github.com/yam-finance/yam-protocol/blob/master/contracts/token/YAMGovernance.sol\r\n    // Which is copied and modified from COMPOUND:\r\n    // https://github.com/compound-finance/compound-protocol/blob/master/contracts/Governance/Comp.sol\r\n\r\n    /// @dev A record of each accounts delegate\r\n    mapping (address => address) internal _delegates;\r\n\r\n    /// @notice A checkpoint for marking number of votes from a given block\r\n    struct Checkpoint {\r\n        uint32 fromBlock;\r\n        uint256 votes;\r\n    }\r\n\r\n    /// @notice A record of votes checkpoints for each account, by index\r\n    mapping (address => mapping (uint32 => Checkpoint)) public checkpoints;\r\n\r\n    /// @notice The number of checkpoints for each account\r\n    mapping (address => uint32) public numCheckpoints;\r\n\r\n    /// @notice The EIP-712 typehash for the contract's domain\r\n    bytes32 public constant DOMAIN_TYPEHASH = keccak256(\"EIP712Domain(string name,uint256 chainId,address verifyingContract)\");\r\n\r\n    /// @notice The EIP-712 typehash for the delegation struct used by the contract\r\n    bytes32 public constant DELEGATION_TYPEHASH = keccak256(\"Delegation(address delegatee,uint256 nonce,uint256 expiry)\");\r\n\r\n    /// @notice A record of states for signing / validating signatures\r\n    mapping (address => uint) public nonces;\r\n\r\n      /// @notice An event thats emitted when an account changes its delegate\r\n    event DelegateChanged(address indexed delegator, address indexed fromDelegate, address indexed toDelegate);\r\n\r\n    /// @notice An event thats emitted when a delegate account's vote balance changes\r\n    event DelegateVotesChanged(address indexed delegate, uint previousBalance, uint newBalance);\r\n\r\n    /**\r\n     * @notice Delegate votes from `msg.sender` to `delegatee`\r\n     * @param delegator The address to get delegatee for\r\n     */\r\n    function delegates(address delegator)\r\n        external\r\n        view\r\n        returns (address)\r\n    {\r\n        return _delegates[delegator];\r\n    }\r\n\r\n   /**\r\n    * @notice Delegate votes from `msg.sender` to `delegatee`\r\n    * @param delegatee The address to delegate votes to\r\n    */\r\n    function delegate(address delegatee) external {\r\n        return _delegate(msg.sender, delegatee);\r\n    }\r\n\r\n    /**\r\n     * @notice Delegates votes from signatory to `delegatee`\r\n     * @param delegatee The address to delegate votes to\r\n     * @param nonce The contract state required to match the signature\r\n     * @param expiry The time at which to expire the signature\r\n     * @param v The recovery byte of the signature\r\n     * @param r Half of the ECDSA signature pair\r\n     * @param s Half of the ECDSA signature pair\r\n     */\r\n    function delegateBySig(\r\n        address delegatee,\r\n        uint nonce,\r\n        uint expiry,\r\n        uint8 v,\r\n        bytes32 r,\r\n        bytes32 s\r\n    )\r\n        external\r\n    {\r\n        bytes32 domainSeparator = keccak256(\r\n            abi.encode(\r\n                DOMAIN_TYPEHASH,\r\n                keccak256(bytes(name())),\r\n                getChainId(),\r\n                address(this)\r\n            )\r\n        );\r\n\r\n        bytes32 structHash = keccak256(\r\n            abi.encode(\r\n                DELEGATION_TYPEHASH,\r\n                delegatee,\r\n                nonce,\r\n                expiry\r\n            )\r\n        );\r\n\r\n        bytes32 digest = keccak256(\r\n            abi.encodePacked(\r\n                \"\\x19\\x01\",\r\n                domainSeparator,\r\n                structHash\r\n            )\r\n        );\r\n\r\n        address signatory = ecrecover(digest, v, r, s);\r\n        require(signatory != address(0), \"BAVA::delegateBySig: invalid signature\");\r\n        require(nonce == nonces[signatory]++, \"BAVA::delegateBySig: invalid nonce\");\r\n        require(block.timestamp <= expiry, \"BAVA::delegateBySig: signature expired\");\r\n        return _delegate(signatory, delegatee);\r\n    }\r\n\r\n    /**\r\n     * @notice Gets the current votes balance for `account`\r\n     * @param account The address to get votes balance\r\n     * @return The number of current votes for `account`\r\n     */\r\n    function getCurrentVotes(address account)\r\n        external\r\n        view\r\n        returns (uint256)\r\n    {\r\n        uint32 nCheckpoints = numCheckpoints[account];\r\n        return nCheckpoints > 0 ? checkpoints[account][nCheckpoints - 1].votes : 0;\r\n    }\r\n\r\n    /**\r\n     * @notice Determine the prior number of votes for an account as of a block number\r\n     * @dev Block number must be a finalized block or else this function will revert to prevent misinformation.\r\n     * @param account The address of the account to check\r\n     * @param blockNumber The block number to get the vote balance at\r\n     * @return The number of votes the account had as of the given block\r\n     */\r\n    function getPriorVotes(address account, uint blockNumber)\r\n        external\r\n        view\r\n        returns (uint256)\r\n    {\r\n        require(blockNumber < block.number, \"BAVA::getPriorVotes: not yet determined\");\r\n\r\n        uint32 nCheckpoints = numCheckpoints[account];\r\n        if (nCheckpoints == 0) {\r\n            return 0;\r\n        }\r\n\r\n        // First check most recent balance\r\n        if (checkpoints[account][nCheckpoints - 1].fromBlock <= blockNumber) {\r\n            return checkpoints[account][nCheckpoints - 1].votes;\r\n        }\r\n\r\n        // Next check implicit zero balance\r\n        if (checkpoints[account][0].fromBlock > blockNumber) {\r\n            return 0;\r\n        }\r\n\r\n        uint32 lower = 0;\r\n        uint32 upper = nCheckpoints - 1;\r\n        while (upper > lower) {\r\n            uint32 center = upper - (upper - lower) / 2; // ceil, avoiding overflow\r\n            Checkpoint memory cp = checkpoints[account][center];\r\n            if (cp.fromBlock == blockNumber) {\r\n                return cp.votes;\r\n            } else if (cp.fromBlock < blockNumber) {\r\n                lower = center;\r\n            } else {\r\n                upper = center - 1;\r\n            }\r\n        }\r\n        return checkpoints[account][lower].votes;\r\n    }\r\n\r\n    function _delegate(address delegator, address delegatee)\r\n        internal\r\n    {\r\n        address currentDelegate = _delegates[delegator];\r\n        uint256 delegatorBalance = balanceOf(delegator);\r\n        _delegates[delegator] = delegatee;\r\n\r\n        emit DelegateChanged(delegator, currentDelegate, delegatee);\r\n\r\n        _moveDelegates(currentDelegate, delegatee, delegatorBalance);\r\n    }\r\n\r\n    function _moveDelegates(address srcRep, address dstRep, uint256 amount) internal {\r\n        if (srcRep != dstRep && amount > 0) {\r\n            if (srcRep != address(0)) {\r\n                // decrease old representative\r\n                uint32 srcRepNum = numCheckpoints[srcRep];\r\n                uint256 srcRepOld = srcRepNum > 0 ? checkpoints[srcRep][srcRepNum - 1].votes : 0;\r\n                uint256 srcRepNew = srcRepOld-(amount);\r\n                _writeCheckpoint(srcRep, srcRepNum, srcRepOld, srcRepNew);\r\n            }\r\n\r\n            if (dstRep != address(0)) {\r\n                // increase new representative\r\n                uint32 dstRepNum = numCheckpoints[dstRep];\r\n                uint256 dstRepOld = dstRepNum > 0 ? checkpoints[dstRep][dstRepNum - 1].votes : 0;\r\n                uint256 dstRepNew = dstRepOld+(amount);\r\n                _writeCheckpoint(dstRep, dstRepNum, dstRepOld, dstRepNew);\r\n            }\r\n        }\r\n    }\r\n\r\n    function _writeCheckpoint(\r\n        address delegatee,\r\n        uint32 nCheckpoints,\r\n        uint256 oldVotes,\r\n        uint256 newVotes\r\n    )\r\n        internal\r\n    {\r\n        uint32 blockNumber = safe32(block.number, \"BAVA::_writeCheckpoint: block number exceeds 32 bits\");\r\n\r\n        if (nCheckpoints > 0 && checkpoints[delegatee][nCheckpoints - 1].fromBlock == blockNumber) {\r\n            checkpoints[delegatee][nCheckpoints - 1].votes = newVotes;\r\n        } else {\r\n            checkpoints[delegatee][nCheckpoints] = Checkpoint(blockNumber, newVotes);\r\n            numCheckpoints[delegatee] = nCheckpoints + 1;\r\n        }\r\n\r\n        emit DelegateVotesChanged(delegatee, oldVotes, newVotes);\r\n    }\r\n\r\n    function safe32(uint n, string memory errorMessage) internal pure returns (uint32) {\r\n        require(n < 2**32, errorMessage);\r\n        return uint32(n);\r\n    }\r\n\r\n    function getChainId() internal view returns (uint) {\r\n        uint256 chainId;\r\n        assembly { chainId := chainid() }\r\n        return chainId;\r\n    }\r\n}",
  "sourcePath": "C:/Users/cheek/Desktop/Developer doc/Visual Studio Code/Baklava/bao2Finance/src/contracts/BavaToken.sol",
  "compiler": {
    "name": "solc",
    "version": "0.8.7+commit.e28d00a7.Emscripten.clang"
  },
  "schemaVersion": "3.2.3",
  "updatedAt": "2021-12-20T08:44:31.370Z",
  "networkType": "ethereum",
  "devdoc": {
    "kind": "dev",
    "methods": {
      "allowance(address,address)": {
        "details": "See {IERC20-allowance}."
      },
      "approve(address,uint256)": {
        "details": "See {IERC20-approve}. Requirements: - `spender` cannot be the zero address."
      },
      "balanceOf(address)": {
        "details": "See {IERC20-balanceOf}."
      },
      "cap()": {
        "details": "Returns the cap on the token's total supply."
      },
      "decimals()": {
        "details": "Returns the number of decimals used to get its user representation. For example, if `decimals` equals `2`, a balance of `505` tokens should be displayed to a user as `5,05` (`505 / 10 ** 2`). Tokens usually opt for a value of 18, imitating the relationship between Ether and Wei. This is the value {ERC20} uses, unless {_setupDecimals} is called. NOTE: This information is only used for _display_ purposes: it in no way affects any of the arithmetic of the contract, including {IERC20-balanceOf} and {IERC20-transfer}."
      },
      "decreaseAllowance(address,uint256)": {
        "details": "Atomically decreases the allowance granted to `spender` by the caller. This is an alternative to {approve} that can be used as a mitigation for problems described in {IERC20-approve}. Emits an {Approval} event indicating the updated allowance. Requirements: - `spender` cannot be the zero address. - `spender` must have allowance for the caller of at least `subtractedValue`."
      },
      "delegate(address)": {
        "params": {
          "delegatee": "The address to delegate votes to"
        }
      },
      "delegateBySig(address,uint256,uint256,uint8,bytes32,bytes32)": {
        "params": {
          "delegatee": "The address to delegate votes to",
          "expiry": "The time at which to expire the signature",
          "nonce": "The contract state required to match the signature",
          "r": "Half of the ECDSA signature pair",
          "s": "Half of the ECDSA signature pair",
          "v": "The recovery byte of the signature"
        }
      },
      "delegates(address)": {
        "params": {
          "delegator": "The address to get delegatee for"
        }
      },
      "getCurrentVotes(address)": {
        "params": {
          "account": "The address to get votes balance"
        },
        "returns": {
          "_0": "The number of current votes for `account`"
        }
      },
      "getPriorVotes(address,uint256)": {
        "details": "Block number must be a finalized block or else this function will revert to prevent misinformation.",
        "params": {
          "account": "The address of the account to check",
          "blockNumber": "The block number to get the vote balance at"
        },
        "returns": {
          "_0": "The number of votes the account had as of the given block"
        }
      },
      "increaseAllowance(address,uint256)": {
        "details": "Atomically increases the allowance granted to `spender` by the caller. This is an alternative to {approve} that can be used as a mitigation for problems described in {IERC20-approve}. Emits an {Approval} event indicating the updated allowance. Requirements: - `spender` cannot be the zero address."
      },
      "name()": {
        "details": "Returns the name of the token."
      },
      "owner()": {
        "details": "Returns the address of the current owner."
      },
      "previousOwner()": {
        "details": "Returns the address of the previous owner."
      },
      "renounceOwnership()": {
        "details": "Leaves the contract without owner. It will not be possible to call `onlyOwner` functions anymore. Can only be called by the current owner. NOTE: Renouncing ownership will leave the contract without an owner, thereby removing any functionality that is only available to the owner."
      },
      "symbol()": {
        "details": "Returns the symbol of the token, usually a shorter version of the name."
      },
      "totalSupply()": {
        "details": "See {IERC20-totalSupply}."
      },
      "transferOwnership(address)": {
        "details": "Transfers ownership of the contract to a new account (`newOwner`). Can only be called by the current owner."
      }
    },
    "stateVariables": {
      "_delegates": {
        "details": "A record of each accounts delegate"
      }
    },
    "version": 1
  },
  "userdoc": {
    "events": {
      "DelegateChanged(address,address,address)": {
        "notice": "An event thats emitted when an account changes its delegate"
      },
      "DelegateVotesChanged(address,uint256,uint256)": {
        "notice": "An event thats emitted when a delegate account's vote balance changes"
      }
    },
    "kind": "user",
    "methods": {
      "DELEGATION_TYPEHASH()": {
        "notice": "The EIP-712 typehash for the delegation struct used by the contract"
      },
      "DOMAIN_TYPEHASH()": {
        "notice": "The EIP-712 typehash for the contract's domain"
      },
      "checkpoints(address,uint32)": {
        "notice": "A record of votes checkpoints for each account, by index"
      },
      "delegate(address)": {
        "notice": "Delegate votes from `msg.sender` to `delegatee`"
      },
      "delegateBySig(address,uint256,uint256,uint8,bytes32,bytes32)": {
        "notice": "Delegates votes from signatory to `delegatee`"
      },
      "delegates(address)": {
        "notice": "Delegate votes from `msg.sender` to `delegatee`"
      },
      "getCurrentVotes(address)": {
        "notice": "Gets the current votes balance for `account`"
      },
      "getPriorVotes(address,uint256)": {
        "notice": "Determine the prior number of votes for an account as of a block number"
      },
      "mint(address,uint256)": {
        "notice": "Creates `_amount` token to `_to`. Must only be called by the owner (MasterChef)."
      },
      "nonces(address)": {
        "notice": "A record of states for signing / validating signatures"
      },
      "numCheckpoints(address)": {
        "notice": "The number of checkpoints for each account"
      }
    },
    "version": 1
  }
}